:1000000078A2FF9A20268F20DC8EAD548F8500AD1C
:10001000558F8501207C8E207C8E207C8E207C8ECE
:10002000207C8E207C8E20009420C28C208A8B2005
:100030000C8B20A38A20AC8820BC8420E28120F98C
:100040008120CE83207F81AD6F8F8500AD708F853D
:1000500001207C8E4C6E80AD3D9FD005A900200014
:1000600000AD838F8500AD848F8501207C8EA92310
:100070008D0620A9C18D0620A9D88D0720A9008D45
:100080000520A9008D0520A93C8D0603A91E8D0120
:10009000208D0503A9808D00208D04034C9C8018C1
:1000A000A9508510A90A6510A9BB8D1004A9752D4A
:1000B0001004A2CC8E2004A9755D5403A25D86664F
:1000C000A9A23509A9EE8504A9058505A9818D3E5A
:1000D00006A050A9FA1104A9128583A9038584A951
:1000E000128D1203A92E38A233E150CA88E8C80A3B
:1000F0002A4A6AA94585676901A090999100186903
:10010000448D66086910A2E49D9104A93E8591A9D9
:10011000038592A0759191A934857EA906857FA259
:1001200099A9D281E5A98085254625A940857BA28C
:100130002B387650A95C8D2502182E2502A9F48D46
:100140001604A2221EF403A94448A95568A944D064
:10015000034C51816020D48EADE48F8500ADE58FD6
:100160008501207C8EA9088D0320A9148D0420A967
:100170004D8D0420A9038D0420A9648D042060AD59
:10018000F58F8500ADF68F8501207C8EA9508D0CF2
:1001900002A9648D0D02A9038D0E02A9648D0F02C0
:1001A000A95A8D1002A9648D1102A9038D1202A90A
:1001B000328D1302A9648D2002A9658D2102A90345
:1001C0008D2202A9C88D2302A91E8D3002A9448D5B
:1001D0003102A9038D3202A9C88D3302A9028D1400
:1001E000406020D48EAD13908500AD149085012021
:1001F0007C8E205581207F8160A212A0E5A9558DBB
:100200007804A9C3187D6604C918F003205780A993
:10021000558D4B05A9F118796604C946F00320579E
:1002200080A9558D1C05A91C8566A9058567A9C3EC
:1002300038E154C96EF003205780A9558D2204A9D6
:1002400022850AA904850BA9C301F8C9D7F00320A8
:100250005780A9558D9E05A98C8554A9058555A063
:1002600012A9C33154C941F003205780A9668D718A
:1002700006A98C8554A9058555A0E5A9C35154C983
:10028000A5F003205780A9159D5503CD6703F00302
:10029000205780A967995503EC3A04D00320578072
:1002A000CD3A04F003205780A9FF85A2A90485A3B5
:1002B000A9888190ADFF04C9E5D003205780C98883
:1002C000F003205780A9FF85FFA9058500A9D181EA
:1002D000EDADFF05C9E5D003205780C9D1F003205B
:1002E0005780A9F185FFA9058500A003A9A591FF65
:1002F000ADF405C9A5F003205780A9FF85FFA90625
:100300008500A012A9DD91FFAD1107C9DDF0032022
:100310005780A9558D7804387E6604AD7804C9AA43
:10032000F003205780A2E5A9A58D7604383E9103FD
:10033000AD7604C94BF0032057804CB783A902C99E
:1003400003D07A0000000000000000000000000060
:10035000000000000000000000000000000000009D
:10036000000000000000000000000000000000008D
:10037000000000000000000000000000000000007D
:10038000000000000000000000000000000000006D
:10039000000000000000000000000000000000005D
:1003A000000000000000000000000000000000004D
:1003B00000000000000000A901C901F08020D48ED7
:1003C000ADB78F8500ADB88F8501207C8E60AD3EC6
:1003D0009FD00160A000A2418600A2008A9900027D
:1003E000C8A500C95BD004A9418500E600990002B8
:1003F000C8A903990002C88A6903AA2A990002C8F9
:10040000D0DAA9028D144020D48EADD68F8500ADF0
:10041000D78F8501207C8E60AD3E9FD00160A0000B
:10042000C8C8C8B90002186901990002C8D0F1A96A
:10043000028D134060203C84209C8440CE0603D073
:1004400050AD050329E78D01208D0503A93C8D06DC
:1004500003AD0703F008CE0703A9314C6384EE0710
:1004600003A932AE00038E0620AE01038E0620A241
:10047000338E0720AE00038E0620EE0103AE01038B
:100480008E06208D0720AD050309188D01208D05EE
:1004900003A9328D0520A9C88D052060AD0203EEA9
:1004A0000203EE02031865018D0520AE0303E8E0A8
:1004B000F0D002A2008E05208E030360ADA68F85CA
:1004C00000ADA78F8501207C8E08A9004828A9EAE5
:1004D000086829EFC9A0F003205780A9004828A97F
:1004E00000086829EFC922F003205780A900482896
:1004F000A2A4086829EFC9A0F003205780A90048EA
:1005000028A200086829EFC922F003205780A9001B
:100510004828A02B086829EFC920F003205780A99C
:10052000004828A0BB086829EFC9A0F00320578025
:10053000A9004828A000086829EFC922F003205725
:1005400080A9FBA9C348288D0105086829EFC9E3E4
:10055000F003205780A2FBA9C348288E0F05086826
:1005600029EFC9E3F003205780A000A9C348288CD5
:100570001005086829EFC9E3F003205780A9C34894
:1005800028AA086829EFC9E1F003205780A900488C
:1005900028AA086829EFC922F003205780A9C34878
:1005A00028A8086829EFC9E1F003205780C0C3F0EC
:1005B00003205780A9004828A8086829EFC922F01D
:1005C00003205780C000F003205780A9C34828BAF1
:1005D000086829EFC9E1F003205780BA8AA8A9006A
:1005E000AA9AA9C34828BA086829EFC963F003206A
:1005F0005780E000F00320578098AA9AA259A9C317
:1006000048288A086829EFC961F003205780A2AC06
:10061000A9C348288A086829EFC9E1F00320578058
:10062000A200A9C348288A086829EFC963F00320FB
:100630005780BA8AA8A200A9C348289A086829EF57
:10064000C963F000A29AA9C348289A086829EFC98B
:10065000E1F00098AA9AA000A9C348289808682940
:10066000EFC963F003205780A0B5A9C348289808B4
:100670006829EFC9E1F003205780A9C34828A0C02A
:10068000845018A930655008AA6829EFC9A0F00362
:10069000205780E0F0F003205780A9C34828A0EE3F
:1006A0008C500538A9AD6D500508AA6829EFC9A17D
:1006B000F003205780E09CF003205780A9C348280E
:1006C000A0EE8C510538A9116D500508AA6829EFD4
:1006D000C923F003205780E000F003205780A9C30E
:1006E0004828A04B8C520538A9646D520508AA68A9
:1006F00029EFC9E0F003205780E0B0F003205780D5
:10070000A9C34828A08E84E4A9B3A23035B408AAAE
:100710006829EFC9E1F003205780E082F0032057F9
:1007200080A9C34828A07E8CE404A981A2303DB4EE
:100730000408AA6829EFC963F003205780E000F09D
:1007400003205780A9C34828A9B30A08AA6829EF3B
:10075000C961F003205780E066F003205780A9C3E9
:100760004828A961857BA2CE16AD086829EFC9E0AB
:10077000F003205780B4ADC0C2F003205780A9C356
:100780004828A98085E506E5086829EFC963F003D4
:10079000205780A4E5C000F003205780A9C3482853
:1007A000A90085E5A90124E5086829EFC923F0031C
:1007B000205780A9C34828A94A8D4004A9012C408C
:1007C00004086829EFC963F003205780A9C34828AB
:1007D000A9918DE504A9E5A0F2D9F303086829EFF2
:1007E000C961F003205780A9C34828A2E58EE5041B
:1007F000A9E5A0F2D9F303086829EFC963F0032043
:100800005780A9C34828A27E8ED705A9E58510A9DF
:10081000048511A0F2A945D110086829EFC9E0F0BC
:1008200003205780BA8650A2D9A9C348289A0868DD
:1008300029EFC9E1F000A200A9C348289A08682955
:10084000EFC963F000A6509AA000A90BA9C34828DD
:1008500098086829EFC963F00320578098C900F011
:1008600003205780A0B0A900A9C348289808682988
:10087000EFC9E1F00320578098C9B0F003205780FA
:10088000A9768572A9058573A9918D7605A2A3A97C
:10089000C34828A99961CF08AA6829EFC961F00364
:1008A000205780E02BF0032057802860AD269085EC
:1008B00000AD27908501207C8E189003205780384A
:1008C000B003205780A900F00320578018E90530B5
:1008D00003205780D0032057801869061003205743
:1008E0008038A992E946700320578038A992E9120E
:1008F0005003205780A900A200F07B4C7689EAEAD9
:10090000EAEAEAEAEAEAEAEAEAEAEAEAEAEAEAEA47
:10091000EAEAEAEAEAEAEAEAEAEAEAEAEAEAEAEA37
:10092000EAEAEAEAEAEAEAEAEAEAEAEAEAEAEAEA27
:10093000EAEAEAEAEAEAEAEAEAEAEAEAEAEAEAEA17
:10094000EAEAEAEAEAEAEAEAEAEAEAEAEAEAEAEA07
:10095000EAEAEAEAEAEAEAEAEAEAEAEAEAEAEAEAF7
:10096000EAEAEAEAEAEAEAEAEAEAEAEAEAEAEAEAE7
:10097000EAEAEAEAEAEAE8E001F080A900A200F087
:100980007B4CFC89EAEAEAEAEAEAEAEAEAEAEAEA23
:10099000EAEAEAEAEAEAEAEAEAEAEAEAEAEAEAEAB7
:1009A000EAEAEAEAEAEAEAEAEAEAEAEAEAEAEAEAA7
:1009B000EAEAEAEAEAEAEAEAEAEAEAEAEAEAEAEA97
:1009C000EAEAEAEAEAEAEAEAEAEAEAEAEAEAEAEA87
:1009D000EAEAEAEAEAEAEAEAEAEAEAEAEAEAEAEA77
:1009E000EAEAEAEAEAEAEAEAEAEAEAEAEAEAEAEA67
:1009F000EAEAEAEAEAEAEAEAEAEAEAEAE8E001F046
:100A00008018A964200E8AC9C8F00E2057802012D1
:100A10008A6020168A6069646038A9C84C298A698E
:100A2000324C2E8A4C1F8A69324C248A6932C9FBA7
:100A3000F00320578038A9C36C3B8A4D8A438A480B
:100A40008A528A6C3F8A69E669E66C418A6C3D8A03
:100A500069E6C9AAF003205780A92348A94648A9F6
:100A60006E48380878081808A9FF08A90008A9FFE7
:100A700028F0032057802830032057802890032037
:100A800057802828B0032057805868C96EF003208B
:100A9000578068C946F00320578068C923F00320B7
:100AA000578060AD38908500AD39908501207C8EEF
:100AB000A939856BA9A18DCC04A99F85FFA2FD064C
:100AC0006BA56BC972F003205780CECC04ADCC046B
:100AD000C9A0F0032057805ECF03ADCC04C950F00D
:100AE00003205780F602A5FFC9A0F0032057801805
:100AF00036023602A5FFC981F003205780387602FE
:100B00007602A5FFC9E0F00320578060AD4A9085CA
:100B100000AD4B908501207C8EA97885A1A9058523
:100B2000A2A9B7A2E1A08A85A98E990A9D800D94F9
:100B30001F91A1C5A9F003205780EC990AF003206A
:100B40005780CD610EF003205780C400F00320577A
:100B500080CD0206F003205780A9F185B0A9058554
:100B6000B1A27CA9618134ADF105C961F0032057C0
:100B700080A9AA8520A9048521A0EC8CAA04A21B27
:100B8000A105C9ECF00320578060AD5C908500ADF5
:100B90005D908501207C8E18A90D69FAC907F003C4
:100BA000205780A937855EA9C98571A9B6255E241D
:100BB00071F003205780A93B8D2104A9D78D1B0517
:100BC000A9EB8DCC06AE2104E88A4D1B05A8CCCC40
:100BD00006F003205780A217A0A1A92F8D5903A9C1
:100BE000909990018A19900138FD4203A8C068F0DD
:100BF00003205780A2CDA9F18535A9AC85BCA98D6C
:100C00003568A09A592200AAE02DF003205780A948
:100C1000388590A9088591A9D98D0209A90AA0CA89
:100C2000187190C9E3F003205780A93385C0A90447
:100C300085C1A9D08D3304A26BA922386155C9F3AF
:100C4000F003205780A93485C1A90485C2A9F58D78
:100C50003404E8A91F2155C915F003205780A93590
:100C600085C2A90485C3A0758C3504E8A975C15552
:100C7000F003205780A93685C3A90485C4A9888DAF
:100C80003604E8A9C14155C949F003205780A93766
:100C900085C4A90485C5A92E8D3704E8A9910155FD
:100CA000C9BFF003205780A93885C5A90485C6A906
:100CB0007F8D3804E8A96A18E155C9EAF003205786
:100CC0008060AD6E908500AD6F908501207C8EA90F
:100CD00080180AF003205780B003205780100320AB
:100CE00057800AF00320578090032057801003207C
:100CF0005780A9400AD003205780900320578030A6
:100D000003205780C980F003205780A9A50AC94A4B
:100D1000F0032057800AC994F003205780A90108E6
:100D20004828B00320578018900320578028A940F6
:100D30000848287003205780B8500320578028A205
:100D400003CAD003205780E002F00320578010032D
:100D5000205780CAD003205780E001F0032057803D
:100D60001003205780CAF003205780E000F00320D2
:100D700057801003205780CAD003205780300320AB
:100D80005780E0FFF003205780A280300320578077
:100D9000CA1003205780E07FF003205780A05088BE
:100DA000C04FF00320578088C04EF003205780C802
:100DB000C04FF003205780E8E080F003205780A95F
:100DC00001184AF003205780B0032057804AF003EF
:100DD0002057809003205780A95A4AC92DF003203C
:100DE0005780A9A5386AC9D2F0032057806A9003BA
:100DF000205780C9E9F003205780182A2AC9A5F096
:100E000003205780B00320578008A900482890038A
:100E100020578038B0032057807808682904D00311
:100E20002057805808682904F00320578028A9011A
:100E3000AA1003205780D003205780E001F0032040
:100E40005780CA8A1003205780F003205780A901D9
:100E5000A8C8C898C003F003205780BA8600A23003
:100E60009AA9DD48BAE02FF003205780A6009AA97E
:100E7000EEAD3001C9DDF0032057806020D48EAD87
:100E800000038D0620AD01038D0620A000B1008D6A
:100E90000720F004C84C8D8E98291FC91FF009A99E
:100EA000008D0720C84C988EAD01038C01036D01A5
:100EB000038D0103AAAD000390061869018D00039C
:100EC000C923D00F8AC9C0D00AA9208D0003A90068
:100ED0008D010360AD3D9FD00268686020D48EA96B
:100EE000008D00208D04038D01208D0503A93F8D09
:100EF0000620A9008D0620A200A020BD068F8D0728
:100F000020E888D0F6600F0010200F0414240F088A
:100F100018280F0C1C2C0F0010200F0616260F0887
:100F200018280F0A1A2AAD3D9FF028A9208D00032A
:100F3000A9018D0103A9008D0203A9008D0303A956
:100F4000008D0403A9008D0503A9008D0603A900E7
:100F50008D070360568F72656772657373696F6E74
:100F600020746573742073746172742E2E2E007158
:100F70008F74657374207375636365656465642E2F
:100F80002E2E00858F74657374206661696C6564AC
:100F900021212100968F61646472657373207465EA
:100FA00073742E2E2E00A88F737461747573207461
:100FB0006573742E2E2E00B98F7061676520626F85
:100FC000726465722063726F7373696E67207465F3
:100FD00073742E2E2E00D88F646D61207465737427
:100FE0002E2E2E00E68F73707269746520746573FF
:100FF000742E2E2E00F78F73696D706C65207370E0
:101000007269746520746573742028646D61292E7B
:101010002E2E00159070707520696E7374207465A3
:1010200073742E2E2E002890613520696E73742003
:10103000746573742E2E2E003A90613420696E739D
:101040007420746573742E2E2E004C9061332069C9
:101050006E737420746573742E2E2E005E90613250
:1010600020696E737420746573742E2E2E00709038
:1010700073696E676C65206279746520696E73743C
:1010800020746573742E2E2E0000000000000000F6
:101090000000000000000000000000000000000050
:1010A0000000000000000000000000000000000040
:1010B0000000000000000000000000000000000030
:1010C0000000000000000000000000000000000020
:101400004C059F2A2A2A2A2A2A2A2A2A2A2A2A2ACA
:10141000302A2A2A2A2A2A2A2A2A2A2A2A2A2A2A26
:101420002A2A2A2A2A2A2A2A2A2A2A2A2A2A2A2A1C
:101430002A2A2A2A2A2A2A2A2A2A2A2A2A2A2A2A0C
:101440002A2A2A2A2A2A2A2A2A2A2A2A2A2A2A2AFC
:101450002A2A2A2A2A2A2A2A2A2A2A2A2A2A2A2AEC
:101460002A2A2A2A2A2A2A2A2A2A2A2A2A2A2A2ADC
:101470002A2A2A2A2A2A2A2A2A2A2A2A2A2A2A2ACC
:101480002A2A2A2A2A2A2A2A2A2A2A2A2A2A2A2ABC
:101490002A2A2A2A2A2A2A2A2A2A2A2A2A2A2A2AAC
:1014A0002A2A2A2A2A2A2A2A2A2A2A2A2A2A2A2A9C
:1014B0002A2A2A2A2A2A2A2A2A2A2A2A2A2A2A2A8C
:1014C0002A2A2A2A2A2A2A2A2A2A2A2A2A2A2A2A7C
:1014D0002A2A2A2A2A2A2A2A2A2A2A2A2A2A2A2A6C
:1014E0002A2A2A2A2A2A2A2A2A2A2A2A2A2A2A2A5C
:1014F0002A2A2A2A2A2A2A2A2A2A2A2A2A2AEA4C6A
:10150000089F2A2A2A2A2A2A2A2A2A2A2A2A2A2AE8
:10151000312A2A2A2A2A2A2A2A2A2A2A2A2A2A2A24
:101520002A2A2A2A2A2A2A2A2A2A2A2A2A2A2A2A1B
:101530002A2A2A2A2A2A2A2A2A2A2A2A2A2A2A2A0B
:101540002A2A2A2A2A2A2A2A2A2A2A2A2A2A2A2AFB
:101550002A2A2A2A2A2A2A2A2A2A2A2A2A2A2A2AEB
:101560002A2A2A2A2A2A2A2A2A2A2A2A2A2A2A2ADB
:101570002A2A2A2A2A2A2A2A2A2A2A2A2A2A2A2ACB
:101580002A2A2A2A2A2A2A2A2A2A2A2A2A2A2A2ABB
:101590002A2A2A2A2A2A2A2A2A2A2A2A2A2A2A2AAB
:1015A0002A2A2A2A2A2A2A2A2A2A2A2A2A2A2A2A9B
:1015B0002A2A2A2A2A2A2A2A2A2A2A2A2A2A2A2A8B
:1015C0002A2A2A2A2A2A2A2A2A2A2A2A2A2A2A2A7B
:1015D0002A2A2A2A2A2A2A2A2A2A2A2A2A2A2A2A6B
:1015E0002A2A2A2A2A2A2A2A2A2A2A2A2A2A2A2A5B
:1015F0002A2A2A2A2A2A2A2A2A2A2A2A2AEA4C0B88
:101600009F2A2A2A2A2A2A2A2A2A2A2A2A2A2A2AC5
:10161000322A2A2A2A2A2A2A2A2A2A2A2A2A2A2A22
:101620002A2A2A2A2A2A2A2A2A2A2A2A2A2A2A2A1A
:101630002A2A2A2A2A2A2A2A2A2A2A2A2A2A2A2A0A
:101640002A2A2A2A2A2A2A2A2A2A2A2A2A2A2A2AFA
:101650002A2A2A2A2A2A2A2A2A2A2A2A2A2A2A2AEA
:101660002A2A2A2A2A2A2A2A2A2A2A2A2A2A2A2ADA
:101670002A2A2A2A2A2A2A2A2A2A2A2A2A2A2A2ACA
:101680002A2A2A2A2A2A2A2A2A2A2A2A2A2A2A2ABA
:101690002A2A2A2A2A2A2A2A2A2A2A2A2A2A2A2AAA
:1016A0002A2A2A2A2A2A2A2A2A2A2A2A2A2A2A2A9A
:1016B0002A2A2A2A2A2A2A2A2A2A2A2A2A2A2A2A8A
:1016C0002A2A2A2A2A2A2A2A2A2A2A2A2A2A2A2A7A
:1016D0002A2A2A2A2A2A2A2A2A2A2A2A2A2A2A2A6A
:1016E0002A2A2A2A2A2A2A2A2A2A2A2A2A2A2A2A5A
:1016F0002A2A2A2A2A2A2A2A2A2A2A2AEA4C0E9F0F
:10170000332A2A2A2A2A2A2A2A2A2A2A2A2A2A2A30
:101710002A2A2A2A2A2A2A2A2A2A2A2A2A2A2A2A29
:101720002A2A2A2A2A2A2A2A2A2A2A2A2A2A2A2A19
:101730002A2A2A2A2A2A2A2A2A2A2A2A2A2A2A2A09
:101740002A2A2A2A2A2A2A2A2A2A2A2A2A2A2A2AF9
:101750002A2A2A2A2A2A2A2A2A2A2A2A2A2A2A2AE9
:101760002A2A2A2A2A2A2A2A2A2A2A2A2A2A2A2AD9
:101770002A2A2A2A2A2A2A2A2A2A2A2A2A2A2A2AC9
:101780002A2A2A2A2A2A2A2A2A2A2A2A2A2A2A2AB9
:101790002A2A2A2A2A2A2A2A2A2A2A2A2A2A2A2AA9
:1017A0002A2A2A2A2A2A2A2A2A2A2A2A2A2A2A2A99
:1017B0002A2A2A2A2A2A2A2A2A2A2A2A2A2A2A2A89
:1017C0002A2A2A2A2A2A2A2A2A2A2A2A2A2A2A2A79
:1017D0002A2A2A2A2A2A2A2A2A2A2A2A2A2A2A2A69
:1017E0002A2A2A2A2A2A2A2A2A2A2A2A2A2A2A2A59
:1017F0002A2A2A2A2A2A2A2A2A2A2A2AA25FEAE81E
:10180000E060F0032057804C119F2A2A2A2A2A2AB6
:10181000342A2A2A2A2A2A2A2A2A2A2A2A2A2A2A1E
:101820002A2A2A2A2A2A2A2A2A2A2A2A2A2A2A2A18
:101830002A2A2A2A2A2A2A2A2A2A2A2A2A2A2A2A08
:101840002A2A2A2A2A2A2A2A2A2A2A2A2A2A2A2AF8
:101850002A2A2A2A2A2A2A2A2A2A2A2A2A2A2A2AE8
:101860002A2A2A2A2A2A2A2A2A2A2A2A2A2A2A2AD8
:101870002A2A2A2A2A2A2A2A2A2A2A2A2A2A2A2AC8
:101880002A2A2A2A2A2A2A2A2A2A2A2A2A2A2A2AB8
:101890002A2A2A2A2A2A2A2A2A2A2A2A2A2A2A2AA8
:1018A0002A2A2A2A2A2A2A2A2A2A2A2A2A2A2A2A98
:1018B0002A2A2A2A2A2A2A2A2A2A2A2A2A2A2A2A88
:1018C0002A2A2A2A2A2A2A2A2A2A2A2A2A2A2A2A78
:1018D0002A2A2A2A2A2A2A2A2A2A2A2A2A2A2A2A68
:1018E0002A2A2A2A2A2A2A2A2A2A2A2A2A2A2A2A58
:1018F0002A2A2A2A2A2A2A2A2A2A2A2A2A2A2AEA88
:10190000E8E061F0032057804C149F2A2A2A2A2AF3
:10191000352A2A2A2A2A2A2A2A2A2A2A2A2A2A2A1C
:101920002A2A2A2A2A2A2A2A2A2A2A2A2A2A2A2A17
:101930002A2A2A2A2A2A2A2A2A2A2A2A2A2A2A2A07
:101940002A2A2A2A2A2A2A2A2A2A2A2A2A2A2A2AF7
:101950002A2A2A2A2A2A2A2A2A2A2A2A2A2A2A2AE7
:101960002A2A2A2A2A2A2A2A2A2A2A2A2A2A2A2AD7
:101970002A2A2A2A2A2A2A2A2A2A2A2A2A2A2A2AC7
:101980002A2A2A2A2A2A2A2A2A2A2A2A2A2A2A2AB7
:101990002A2A2A2A2A2A2A2A2A2A2A2A2A2A2A2AA7
:1019A0002A2A2A2A2A2A2A2A2A2A2A2A2A2A2A2A97
:1019B0002A2A2A2A2A2A2A2A2A2A2A2A2A2A2A2A87
:1019C0002A2A2A2A2A2A2A2A2A2A2A2A2A2A2A2A77
:1019D0002A2A2A2A2A2A2A2A2A2A2A2A2A2A2A2A67
:1019E0002A2A2A2A2A2A2A2A2A2A2A2A2A2A2A2A57
:1019F0002A2A2A2A2A2A2A2A2A2A2A2A38A93BEAE9
:101A0000699BC9D7F0032057804C179F2A2A2A2A9E
:101A1000362A2A2A2A2A2A2A2A2A2A2A2A2A2A2A1A
:101A20002A2A2A2A2A2A2A2A2A2A2A2A2A2A2A2A16
:101A30002A2A2A2A2A2A2A2A2A2A2A2A2A2A2A2A06
:101A40002A2A2A2A2A2A2A2A2A2A2A2A2A2A2A2AF6
:101A50002A2A2A2A2A2A2A2A2A2A2A2A2A2A2A2AE6
:101A60002A2A2A2A2A2A2A2A2A2A2A2A2A2A2A2AD6
:101A70002A2A2A2A2A2A2A2A2A2A2A2A2A2A2A2AC6
:101A80002A2A2A2A2A2A2A2A2A2A2A2A2A2A2A2AB6
:101A90002A2A2A2A2A2A2A2A2A2A2A2A2A2A2A2AA6
:101AA0002A2A2A2A2A2A2A2A2A2A2A2A2A2A2A2A96
:101AB0002A2A2A2A2A2A2A2A2A2A2A2A2A2A2A2A86
:101AC0002A2A2A2A2A2A2A2A2A2A2A2A2A2A2A2A76
:101AD0002A2A2A2A2A2A2A2A2A2A2A2A2A2A2A2A66
:101AE0002A2A2A2A2A2A2A2A2A2A2A2A2A2A2A2A56
:101AF0002A2A2A2A2A2A2A2A2A2A2A38A977EA09CD
:101B0000F0C9F7F0032057804C1A9F2A2A2A2A2A64
:101B1000372A2A2A2A2A2A2A2A2A2A2A2A2A2A2A18
:101B20002A2A2A2A2A2A2A2A2A2A2A2A2A2A2A2A15
:101B30002A2A2A2A2A2A2A2A2A2A2A2A2A2A2A2A05
:101B40002A2A2A2A2A2A2A2A2A2A2A2A2A2A2A2AF5
:101B50002A2A2A2A2A2A2A2A2A2A2A2A2A2A2A2AE5
:101B60002A2A2A2A2A2A2A2A2A2A2A2A2A2A2A2AD5
:101B70002A2A2A2A2A2A2A2A2A2A2A2A2A2A2A2AC5
:101B80002A2A2A2A2A2A2A2A2A2A2A2A2A2A2A2AB5
:101B90002A2A2A2A2A2A2A2A2A2A2A2A2A2A2A2AA5
:101BA0002A2A2A2A2A2A2A2A2A2A2A2A2A2A2A2A95
:101BB0002A2A2A2A2A2A2A2A2A2A2A2A2A2A2A2A85
:101BC0002A2A2A2A2A2A2A2A2A2A2A2A2A2A2A2A75
:101BD0002A2A2A2A2A2A2A2A2A2A2A2A2A2A2A2A65
:101BE0002A2A2A2A2A2A2A2A2A2A2A2A2A2A2A2A55
:101BF0002A2A2A2A38A9C18D2006A991EAED2006B1
:101C0000C9D0F0032057804C1D9F2A2A2A2A2A2A4D
:101C1000382A2A2A2A2A2A2A2A2A2A2A2A2A2A2A16
:101C20002A2A2A2A2A2A2A2A2A2A2A2A2A2A2A2A14
:101C30002A2A2A2A2A2A2A2A2A2A2A2A2A2A2A2A04
:101C40002A2A2A2A2A2A2A2A2A2A2A2A2A2A2A2AF4
:101C50002A2A2A2A2A2A2A2A2A2A2A2A2A2A2A2AE4
:101C60002A2A2A2A2A2A2A2A2A2A2A2A2A2A2A2AD4
:101C70002A2A2A2A2A2A2A2A2A2A2A2A2A2A2A2AC4
:101C80002A2A2A2A2A2A2A2A2A2A2A2A2A2A2A2AB4
:101C90002A2A2A2A2A2A2A2A2A2A2A2A2A2A2A2AA4
:101CA0002A2A2A2A2A2A2A2A2A2A2A2A2A2A2A2A94
:101CB0002A2A2A2A2A2A2A2A2A2A2A2A2A2A2A2A84
:101CC0002A2A2A2A2A2A2A2A2A2A2A2A2A2A2A2A74
:101CD0002A2A2A2A2A2A2A2A2A2A2A2A2A2A2A2A64
:101CE0002A2A2A2A2A2A2A2A2A2A2A2A2A2A2A2A54
:101CF0002A2A2A2A2A2A2A2A2A2A209FEA6CFA9C95
:101D00004C239F2A2A2A2A2A2A2A2A2A2A2A2A2AA3
:101D1000392A2A2A2A2A2A2A2A2A2A2A2A2A2A2A14
:101D20002A2A2A2A2A2A2A2A2A2A2A2A2A2A2A2A13
:101D30002A2A2A2A2A2A2A2A2A2A2A2A2A2A2A2A03
:101D40002A2A2A2A2A2A2A2A2A2A2A2A2A2A2A2AF3
:101D50002A2A2A2A2A2A2A2A2A2A2A2A2A2A2A2AE3
:101D60002A2A2A2A2A2A2A2A2A2A2A2A2A2A2A2AD3
:101D70002A2A2A2A2A2A2A2A2A2A2A2A2A2A2A2AC3
:101D80002A2A2A2A2A2A2A2A2A2A2A2A2A2A2A2AB3
:101D90002A2A2A2A2A2A2A2A2A2A2A2A2A2A2A2AA3
:101DA0002A2A2A2A2A2A2A2A2A2A2A2A2A2A2A2A93
:101DB0002A2A2A2A2A2A2A2A2A2A2A2A2A2A2A2A83
:101DC0002A2A2A2A2A2A2A2A2A2A2A2A2A2A2A2A73
:101DD0002A2A2A2A2A2A2A2A2A2A2A2A2A2A2A2A63
:101DE0002A2A2A2A2A2A2A2A2A2A2A2A2A2A2A2A53
:101DF0002A2A2A2A2A2A2A2A2A2A2A269FEA6CFBFF
:101E00009D4C299F2A2A2A2A2A2A2A2A2A2A2A2A29
:101E100031302A2A2A2A2A2A2A2A2A2A2A2A2A2A15
:101E20002A2A2A2A2A2A2A2A2A2A2A2A2A2A2A2A12
:101E30002A2A2A2A2A2A2A2A2A2A2A2A2A2A2A2A02
:101E40002A2A2A2A2A2A2A2A2A2A2A2A2A2A2A2AF2
:101E50002A2A2A2A2A2A2A2A2A2A2A2A2A2A2A2AE2
:101E60002A2A2A2A2A2A2A2A2A2A2A2A2A2A2A2AD2
:101E70002A2A2A2A2A2A2A2A2A2A2A2A2A2A2A2AC2
:101E80002A2A2A2A2A2A2A2A2A2A2A2A2A2A2A2AB2
:101E90002A2A2A2A2A2A2A2A2A2A2A2A2A2A2A2AA2
:101EA0002A2A2A2A2A2A2A2A2A2A2A2A2A2A2A2A92
:101EB0002A2A2A2A2A2A2A2A2A2A2A2A2A2A2A2A82
:101EC0002A2A2A2A2A2A2A2A2A2A2A2A2A2A2A2A72
:101ED0002A2A2A2A2A2A2A2A2A2A2A2A2A2A2A2A62
:101EE0002A2A2A2A2A2A2A2A2A2A2A2A2A2A2A2A52
:101EF0002A2A2A2A2A2A2A2A2A2A2A2A2C9FEA6CC9
:101F0000FC9E4C2F9F4CFE944CFD954CFC964CFC3B
:101F1000974CFF984CFC994CFB9A4CF49B4CFC9CC6
:101F20004C009D4CFD9D4C019E4CFE9E4C029FAD75
:101F3000948F8500AD958F8501207C8E6000010017
:101F40000000000000000000000000000000000091
:101F50000000000000000000000000000000000081
:101F60000000000000000000000000000000000071
:101F70000000000000000000000000000000000061
:101F80000000000000000000000000000000000051
:101F90000000000000000000000000000000000041
:101FA0000000000000000000000000000000000031
:101FB0000000000000000000000000000000000021
:101FC0000000000000000000000000000000000011
:101FD0000000000000000000000000000000000001
:101FE00000000000000000000000000000000000F1
:101FF00000000000000000000000358400800000A8
:1020000000000000000000000000000000000000D0
:1020100000000000000000000000000000000000C0
:1020200000000000000000000000000000000000B0
:1020300000000000000000000000000000000000A0
:107FF0000000000000000000000035840080000048
:00000001FF
