:1000000078A2FF9A20298F20DF8EAD578F8500AD13
:10001000588F8501207F8E207F8E207F8E207F8EBF
:10002000207F8E207F8E20009420C58C208D8B20F9
:100030000F8B20A68A20AF8820BF8420E28120F980
:100040008120CE83207F81AD728F8500AD738F8537
:1000500001207F8E4C6E80AD3D9FD005A900200011
:1000600000AD868F8500AD878F8501207F8EA92307
:100070008D0620A9C18D0620A9D88D0720A9008D45
:100080000520A9008D0520A93C8D0603A91E8D0120
:10009000208D0503A9808D00208D04034C9C8018C1
:1000A000A9508510A90A6510A9BB8D1004A9752D4A
:1000B0001004A2CC8E2004A9755D5403A25D86664F
:1000C000A9A23509A9EE8504A9058505A9818D3E5A
:1000D00006A050A9FA1104A9128583A9038584A951
:1000E000128D1203A92E38A233E150CA88E8C80A3B
:1000F0002A4A6AA94585676901A090999100186903
:10010000448D66086910A2E49D9104A93E8591A9D9
:10011000038592A0759191A934857EA906857FA259
:1001200099A9D281E5A98085254625A940857BA28C
:100130002B387650A95C8D2502182E2502A9F48D46
:100140001604A2221EF403A94448A95568A944D064
:10015000034C51816020D78EADE78F8500ADE88FCD
:100160008501207F8EA9088D0320A9148D0420A964
:100170004D8D0420A9038D0420A9648D042060AD59
:10018000F88F8500ADF98F8501207F8EA9508D0CE9
:1001900002A9648D0D02A9038D0E02A9648D0F02C0
:1001A000A95A8D1002A9648D1102A9038D1202A90A
:1001B000328D1302A9648D2002A9658D2102A90345
:1001C0008D2202A9C88D2302A91E8D3002A9448D5B
:1001D0003102A9038D3202A9C88D3302A9028D1400
:1001E000406020D78EAD16908500AD179085012018
:1001F0007F8E205581207F8160A212A0E5A9558DB8
:100200007804A9C3187D6604C918F003205780A993
:10021000558D4B05A9F118796604C946F00320579E
:1002200080A9558D1C05A91C8566A9058567A9C3EC
:1002300038E154C96EF003205780A9558D2204A9D6
:1002400022850AA904850BA9C301F8C9D7F00320A8
:100250005780A9558D9E05A98C8554A9058555A063
:1002600012A9C33154C941F003205780A9668D718A
:1002700006A98C8554A9058555A0E5A9C35154C983
:10028000A5F003205780A9159D5503CD6703F00302
:10029000205780A967995503EC3A04D00320578072
:1002A000CD3A04F003205780A9FF85A2A90485A3B5
:1002B000A9888190ADFF04C9E5D003205780C98883
:1002C000F003205780A9FF85FFA9058500A9D181EA
:1002D000EDADFF05C9E5D003205780C9D1F003205B
:1002E0005780A9F185FFA9058500A003A9A591FF65
:1002F000ADF405C9A5F003205780A9FF85FFA90625
:100300008500A012A9DD91FFAD1107C9DDF0032022
:100310005780A9558D7804387E6604AD7804C9AA43
:10032000F003205780A2E5A9A58D7604383E9103FD
:10033000AD7604C94BF0032057804CB783A902C99E
:1003400003D07A0000000000000000000000000060
:10035000000000000000000000000000000000009D
:10036000000000000000000000000000000000008D
:10037000000000000000000000000000000000007D
:10038000000000000000000000000000000000006D
:10039000000000000000000000000000000000005D
:1003A000000000000000000000000000000000004D
:1003B00000000000000000A901C901F08020D78ED4
:1003C000ADBA8F8500ADBB8F8501207F8E60AD3EBD
:1003D0009FD00160A000A2418600A2008A9900027D
:1003E000C8A500C95BD004A9418500E600990002B8
:1003F000C8A903990002C88A6903AA2A990002C8F9
:10040000D0DAA9028D144020D78EADD98F8500ADEA
:10041000DA8F8501207F8E60AD3E9FD00160A00005
:10042000C8C8C8B90002186901990002C8D0F1A96A
:10043000028D144060203F84209F8420188440CE89
:100440000603D050AD050329E78D01208D0503A9D2
:100450003C8D0603AD0703F008CE0703A9314C66B7
:1004600084EE0703A932AE00038E0620AE01038E90
:100470000620A2338E0720AE00038E0620EE010375
:10048000AE01038E06208D0720AD050309188D01EE
:10049000208D0503A9328D0520A9C88D052060ADEA
:1004A0000203EE0203EE02031865018D0520AE0380
:1004B00003E8E0F0D002A2008E05208E030360ADB9
:1004C000A98F8500ADAA8F8501207F8E08A90048DD
:1004D00028A9EA086829EFC9A0F003205780A900DD
:1004E0004828A900086829EFC922F003205780A9ED
:1004F000004828A2A4086829EFC9A0F0032057806B
:10050000A9004828A200086829EFC922F003205753
:1005100080A9004828A02B086829EFC920F00320F3
:100520005780A9004828A0BB086829EFC9A0F0039C
:10053000205780A9004828A000086829EFC922F0A8
:1005400003205780A9FBA9C348288D010508682905
:10055000EFC9E3F003205780A2FBA9C348288E0F00
:1005600005086829EFC9E3F003205780A000A9C35C
:1005700048288C1005086829EFC9E3F0032057804C
:10058000A9C34828AA086829EFC9E1F003205780C9
:10059000A9004828AA086829EFC922F0032057803B
:1005A000A9C34828A8086829EFC9E1F003205780AB
:1005B000C0C3F003205780A9004828A8086829EF85
:1005C000C922F003205780C000F003205780A9C340
:1005D0004828BA086829EFC9E1F003205780BA8A91
:1005E000A8A900AA9AA9C34828BA086829EFC9632C
:1005F000F003205780E000F00320578098AA9AA2C9
:1006000059A9C348288A086829EFC961F00320570F
:1006100080A2ACA9C348288A086829EFC9E1F00381
:10062000205780A200A9C348288A086829EFC96317
:10063000F003205780BA8AA8A200A9C348289A08C4
:100640006829EFC963F000A29AA9C348289A0868EC
:1006500029EFC9E1F00098AA9AA000A9C3482898F8
:10066000086829EFC963F003205780A0B5A9C348E3
:100670002898086829EFC9E1F003205780A9C348EA
:1006800028A0C0845018A930655008AA6829EFC96D
:10069000A0F003205780E0F0F003205780A9C34862
:1006A00028A0EE8C500538A9AD6D500508AA682920
:1006B000EFC9A1F003205780E09CF003205780A9E8
:1006C000C34828A0EE8C510538A9116D500508AA21
:1006D0006829EFC923F003205780E000F00320577A
:1006E00080A9C34828A04B8C520538A9646D5205D7
:1006F00008AA6829EFC9E0F003205780E0B0F003B2
:10070000205780A9C34828A08E84E4A9B3A230351D
:10071000B408AA6829EFC9E1F003205780E082F00D
:1007200003205780A9C34828A07E8CE404A981A295
:10073000303DB40408AA6829EFC963F0032057804C
:10074000E000F003205780A9C34828A9B30A08AAEB
:100750006829EFC961F003205780E066F003205755
:1007600080A9C34828A961857BA2CE16AD08682957
:10077000EFC9E0F003205780B4ADC0C2F0032057AA
:1007800080A9C34828A98085E506E5086829EFC93E
:1007900063F003205780A4E5C000F003205780A930
:1007A000C34828A90085E5A90124E5086829EFC9FF
:1007B00023F003205780A9C34828A94A8D4004A9E3
:1007C000012C4004086829EFC963F003205780A971
:1007D000C34828A9918DE504A9E5A0F2D9F303083F
:1007E0006829EFC961F003205780A9C34828A2E512
:1007F0008EE504A9E5A0F2D9F303086829EFC963DF
:10080000F003205780A9C34828A27E8ED705A9E50A
:100810008510A9048511A0F2A945D110086829EF17
:10082000C9E0F003205780BA8650A2D9A9C348284E
:100830009A086829EFC9E1F000A200A9C348289AE4
:10084000086829EFC963F000A6509AA000A90BA977
:10085000C3482898086829EFC963F0032057809897
:10086000C900F003205780A0B0A900A9C348289868
:10087000086829EFC9E1F00320578098C9B0F00358
:10088000205780A9768572A9058573A9918D760573
:10089000A2A3A9C34828A99961CF08AA6829EFC9CA
:1008A00061F003205780E02BF0032057802860ADD3
:1008B00029908500AD2A908501207F8E1890032015
:1008C000578038B003205780A900F00320578018C4
:1008D000E9053003205780D003205780186906109F
:1008E0000320578038A992E946700320578038A921
:1008F00092E9125003205780A900A200F07B4C79A6
:1009000089EAEAEAEAEAEAEAEAEAEAEAEAEAEAEAA8
:10091000EAEAEAEAEAEAEAEAEAEAEAEAEAEAEAEA37
:10092000EAEAEAEAEAEAEAEAEAEAEAEAEAEAEAEA27
:10093000EAEAEAEAEAEAEAEAEAEAEAEAEAEAEAEA17
:10094000EAEAEAEAEAEAEAEAEAEAEAEAEAEAEAEA07
:10095000EAEAEAEAEAEAEAEAEAEAEAEAEAEAEAEAF7
:10096000EAEAEAEAEAEAEAEAEAEAEAEAEAEAEAEAE7
:10097000EAEAEAEAEAEAEAEAEAE8E001F080A9005B
:10098000A200F07B4CFF89EAEAEAEAEAEAEAEAEA4C
:10099000EAEAEAEAEAEAEAEAEAEAEAEAEAEAEAEAB7
:1009A000EAEAEAEAEAEAEAEAEAEAEAEAEAEAEAEAA7
:1009B000EAEAEAEAEAEAEAEAEAEAEAEAEAEAEAEA97
:1009C000EAEAEAEAEAEAEAEAEAEAEAEAEAEAEAEA87
:1009D000EAEAEAEAEAEAEAEAEAEAEAEAEAEAEAEA77
:1009E000EAEAEAEAEAEAEAEAEAEAEAEAEAEAEAEA67
:1009F000EAEAEAEAEAEAEAEAEAEAEAEAEAEAEAE859
:100A0000E001F08018A96420118AC9C8F00E2057AF
:100A10008020158A6020198A6069646038A9C84CF2
:100A20002C8A69324C318A4C228A69324C278A6975
:100A300032C9FBF00320578038A9C36C3E8A508A24
:100A4000468A4B8A558A6C428A69E669E66C448A12
:100A50006C408A69E6C9AAF003205780A92348A9F7
:100A60004648A96E48380878081808A9FF08A90060
:100A700008A9FF28F003205780283003205780283A
:100A800090032057802828B0032057805868C96EEB
:100A9000F00320578068C946F00320578068C923B7
:100AA000F00320578060AD3B908500AD3C90850100
:100AB000207F8EA939856BA9A18DCC04A99F85FFC4
:100AC000A2FD066BA56BC972F003205780CECC0443
:100AD000ADCC04C9A0F0032057805ECF03ADCC0499
:100AE000C950F003205780F602A5FFC9A0F00320EB
:100AF00057801836023602A5FFC981F003205780BF
:100B00003876027602A5FFC9E0F00320578060AD79
:100B10004D908500AD4E908501207F8EA97885A1EE
:100B2000A90585A2A9B7A2E1A08A85A98E990A9DE7
:100B3000800D941F91A1C5A9F003205780EC990A5C
:100B4000F003205780CD610EF003205780C400F0E1
:100B500003205780CD0206F003205780A9F185B00D
:100B6000A90585B1A27CA9618134ADF105C961F007
:100B700003205780A9AA8520A9048521A0EC8CAA6E
:100B800004A21BA105C9ECF00320578060AD5F9063
:100B90008500AD60908501207F8E18A90D69FAC986
:100BA00007F003205780A937855EA9C98571A9B6CA
:100BB000255E2471F003205780A93B8D2104A9D71D
:100BC0008D1B05A9EB8DCC06AE2104E88A4D1B05D3
:100BD000A8CCCC06F003205780A217A0A1A92F8D86
:100BE0005903A9909990018A19900138FD4203A8F0
:100BF000C068F003205780A2CDA9F18535A9AC8546
:100C0000BCA98D3568A09A592200AAE02DF00320D6
:100C10005780A9388590A9088591A9D98D0209A97D
:100C20000AA0CA187190C9E3F003205780A9338540
:100C3000C0A90485C1A9D08D3304A26BA922386153
:100C400055C9F3F003205780A93485C1A90485C292
:100C5000A9F58D3404E8A91F2155C915F0032057C3
:100C600080A93585C2A90485C3A0758C3504E8A97F
:100C700075C155F003205780A93685C3A90485C4E2
:100C8000A9888D3604E8A9C14155C949F003205708
:100C900080A93785C4A90485C5A92E8D3704E8A984
:100CA000910155C9BFF003205780A93885C5A90413
:100CB00085C6A97F8D3804E8A96A18E155C9EAF00C
:100CC0000320578060AD71908500AD729085012042
:100CD0007F8EA980180AF003205780B00320578028
:100CE00010032057800AF00320578090032057807C
:100CF0001003205780A9400AD0032057809003207A
:100D000057803003205780C980F003205780A9A561
:100D10000AC94AF0032057800AC994F0032057807B
:100D2000A901084828B00320578018900320578055
:100D300028A9400848287003205780B8500320573E
:100D40008028A203CAD003205780E002F003205776
:100D5000801003205780CAD003205780E001F003A1
:100D60002057801003205780CAF003205780E000EE
:100D7000F0032057801003205780CAD003205780EB
:100D80003003205780E0FFF003205780A28030031B
:100D9000205780CA1003205780E07FF0032057803F
:100DA000A05088C04FF00320578088C04EF0032029
:100DB0005780C8C04FF003205780E8E080F0032040
:100DC0005780A901184AF003205780B003205780AC
:100DD0004AF0032057809003205780A95A4AC92D12
:100DE000F003205780A9A5386AC9D2F003205780A4
:100DF0006A9003205780C9E9F003205780182A2AF7
:100E0000C9A5F003205780B00320578008A90048E7
:100E100028900320578038B003205780780868292D
:100E200004D0032057805808682904F00320578015
:100E300028A901AA1003205780D003205780E00181
:100E4000F003205780CA8A1003205780F0032057F0
:100E500080A901A8C8C898C003F003205780BA86AB
:100E600000A2309AA9DD48BAE02FF003205780A6EF
:100E7000009AA9EEAD3001C9DDF003205780602053
:100E8000D78EAD00038D0620AD01038D0620A00096
:100E9000B1008D0720F004C84C908E98291FC91FFF
:100EA000F009A9008D0720C84C9B8EAD01038C0171
:100EB000036D01038D0103AAAD00039006186901BB
:100EC0008D0003C923D00F8AC9C0D00AA9208D0084
:100ED00003A9008D010360AD3D9FD00268686020CA
:100EE000D78EA9008D00208D04038D01208D050370
:100EF000A93F8D0620A9008D0620A200A020BD09D3
:100F00008F8D0720E888D0F6600F0010200F0414A2
:100F1000240F0818280F0C1C2C0F0010200F061689
:100F2000260F0818280F0A1A2AAD3D9FF028A9207D
:100F30008D0003A9018D0103A9008D0203A9008D75
:100F40000303A9008D0403A9008D0503A9008D06E4
:100F500003A9008D070360598F726567726573730B
:100F6000696F6E20746573742073746172742E2EB1
:100F70002E00748F74657374207375636365656484
:100F800065642E2E2E00888F7465737420666169E7
:100F90006C656421212100998F61646472657373AB
:100FA00020746573742E2E2E00AB8F73746174756C
:100FB0007320746573742E2E2E00BC8F706167656C
:100FC00020626F726465722063726F7373696E67FB
:100FD00020746573742E2E2E00DB8F646D61207477
:100FE0006573742E2E2E00E98F73707269746520FC
:100FF000746573742E2E2E00FA8F73696D706C6594
:101000002073707269746520746573742028646D30
:1010100061292E2E2E00189070707520696E7374E1
:1010200020746573742E2E2E002B90613520696E0E
:10103000737420746573742E2E2E003D90613420DD
:10104000696E737420746573742E2E2E004F906138
:101050003320696E737420746573742E2E2E0061B4
:1010600090613220696E737420746573742E2E2E15
:1010700000739073696E676C65206279746520698E
:101080006E737420746573742E2E2E0000000000A1
:101090000000000000000000000000000000000050
:1010A0000000000000000000000000000000000040
:1010B0000000000000000000000000000000000030
:1010C0000000000000000000000000000000000020
:101400004C059F2A2A2A2A2A2A2A2A2A2A2A2A2ACA
:10141000302A2A2A2A2A2A2A2A2A2A2A2A2A2A2A26
:101420002A2A2A2A2A2A2A2A2A2A2A2A2A2A2A2A1C
:101430002A2A2A2A2A2A2A2A2A2A2A2A2A2A2A2A0C
:101440002A2A2A2A2A2A2A2A2A2A2A2A2A2A2A2AFC
:101450002A2A2A2A2A2A2A2A2A2A2A2A2A2A2A2AEC
:101460002A2A2A2A2A2A2A2A2A2A2A2A2A2A2A2ADC
:101470002A2A2A2A2A2A2A2A2A2A2A2A2A2A2A2ACC
:101480002A2A2A2A2A2A2A2A2A2A2A2A2A2A2A2ABC
:101490002A2A2A2A2A2A2A2A2A2A2A2A2A2A2A2AAC
:1014A0002A2A2A2A2A2A2A2A2A2A2A2A2A2A2A2A9C
:1014B0002A2A2A2A2A2A2A2A2A2A2A2A2A2A2A2A8C
:1014C0002A2A2A2A2A2A2A2A2A2A2A2A2A2A2A2A7C
:1014D0002A2A2A2A2A2A2A2A2A2A2A2A2A2A2A2A6C
:1014E0002A2A2A2A2A2A2A2A2A2A2A2A2A2A2A2A5C
:1014F0002A2A2A2A2A2A2A2A2A2A2A2A2A2AEA4C6A
:10150000089F2A2A2A2A2A2A2A2A2A2A2A2A2A2AE8
:10151000312A2A2A2A2A2A2A2A2A2A2A2A2A2A2A24
:101520002A2A2A2A2A2A2A2A2A2A2A2A2A2A2A2A1B
:101530002A2A2A2A2A2A2A2A2A2A2A2A2A2A2A2A0B
:101540002A2A2A2A2A2A2A2A2A2A2A2A2A2A2A2AFB
:101550002A2A2A2A2A2A2A2A2A2A2A2A2A2A2A2AEB
:101560002A2A2A2A2A2A2A2A2A2A2A2A2A2A2A2ADB
:101570002A2A2A2A2A2A2A2A2A2A2A2A2A2A2A2ACB
:101580002A2A2A2A2A2A2A2A2A2A2A2A2A2A2A2ABB
:101590002A2A2A2A2A2A2A2A2A2A2A2A2A2A2A2AAB
:1015A0002A2A2A2A2A2A2A2A2A2A2A2A2A2A2A2A9B
:1015B0002A2A2A2A2A2A2A2A2A2A2A2A2A2A2A2A8B
:1015C0002A2A2A2A2A2A2A2A2A2A2A2A2A2A2A2A7B
:1015D0002A2A2A2A2A2A2A2A2A2A2A2A2A2A2A2A6B
:1015E0002A2A2A2A2A2A2A2A2A2A2A2A2A2A2A2A5B
:1015F0002A2A2A2A2A2A2A2A2A2A2A2A2AEA4C0B88
:101600009F2A2A2A2A2A2A2A2A2A2A2A2A2A2A2AC5
:10161000322A2A2A2A2A2A2A2A2A2A2A2A2A2A2A22
:101620002A2A2A2A2A2A2A2A2A2A2A2A2A2A2A2A1A
:101630002A2A2A2A2A2A2A2A2A2A2A2A2A2A2A2A0A
:101640002A2A2A2A2A2A2A2A2A2A2A2A2A2A2A2AFA
:101650002A2A2A2A2A2A2A2A2A2A2A2A2A2A2A2AEA
:101660002A2A2A2A2A2A2A2A2A2A2A2A2A2A2A2ADA
:101670002A2A2A2A2A2A2A2A2A2A2A2A2A2A2A2ACA
:101680002A2A2A2A2A2A2A2A2A2A2A2A2A2A2A2ABA
:101690002A2A2A2A2A2A2A2A2A2A2A2A2A2A2A2AAA
:1016A0002A2A2A2A2A2A2A2A2A2A2A2A2A2A2A2A9A
:1016B0002A2A2A2A2A2A2A2A2A2A2A2A2A2A2A2A8A
:1016C0002A2A2A2A2A2A2A2A2A2A2A2A2A2A2A2A7A
:1016D0002A2A2A2A2A2A2A2A2A2A2A2A2A2A2A2A6A
:1016E0002A2A2A2A2A2A2A2A2A2A2A2A2A2A2A2A5A
:1016F0002A2A2A2A2A2A2A2A2A2A2A2AEA4C0E9F0F
:10170000332A2A2A2A2A2A2A2A2A2A2A2A2A2A2A30
:101710002A2A2A2A2A2A2A2A2A2A2A2A2A2A2A2A29
:101720002A2A2A2A2A2A2A2A2A2A2A2A2A2A2A2A19
:101730002A2A2A2A2A2A2A2A2A2A2A2A2A2A2A2A09
:101740002A2A2A2A2A2A2A2A2A2A2A2A2A2A2A2AF9
:101750002A2A2A2A2A2A2A2A2A2A2A2A2A2A2A2AE9
:101760002A2A2A2A2A2A2A2A2A2A2A2A2A2A2A2AD9
:101770002A2A2A2A2A2A2A2A2A2A2A2A2A2A2A2AC9
:101780002A2A2A2A2A2A2A2A2A2A2A2A2A2A2A2AB9
:101790002A2A2A2A2A2A2A2A2A2A2A2A2A2A2A2AA9
:1017A0002A2A2A2A2A2A2A2A2A2A2A2A2A2A2A2A99
:1017B0002A2A2A2A2A2A2A2A2A2A2A2A2A2A2A2A89
:1017C0002A2A2A2A2A2A2A2A2A2A2A2A2A2A2A2A79
:1017D0002A2A2A2A2A2A2A2A2A2A2A2A2A2A2A2A69
:1017E0002A2A2A2A2A2A2A2A2A2A2A2A2A2A2A2A59
:1017F0002A2A2A2A2A2A2A2A2A2A2A2AA25FEAE81E
:10180000E060F0032057804C119F2A2A2A2A2A2AB6
:10181000342A2A2A2A2A2A2A2A2A2A2A2A2A2A2A1E
:101820002A2A2A2A2A2A2A2A2A2A2A2A2A2A2A2A18
:101830002A2A2A2A2A2A2A2A2A2A2A2A2A2A2A2A08
:101840002A2A2A2A2A2A2A2A2A2A2A2A2A2A2A2AF8
:101850002A2A2A2A2A2A2A2A2A2A2A2A2A2A2A2AE8
:101860002A2A2A2A2A2A2A2A2A2A2A2A2A2A2A2AD8
:101870002A2A2A2A2A2A2A2A2A2A2A2A2A2A2A2AC8
:101880002A2A2A2A2A2A2A2A2A2A2A2A2A2A2A2AB8
:101890002A2A2A2A2A2A2A2A2A2A2A2A2A2A2A2AA8
:1018A0002A2A2A2A2A2A2A2A2A2A2A2A2A2A2A2A98
:1018B0002A2A2A2A2A2A2A2A2A2A2A2A2A2A2A2A88
:1018C0002A2A2A2A2A2A2A2A2A2A2A2A2A2A2A2A78
:1018D0002A2A2A2A2A2A2A2A2A2A2A2A2A2A2A2A68
:1018E0002A2A2A2A2A2A2A2A2A2A2A2A2A2A2A2A58
:1018F0002A2A2A2A2A2A2A2A2A2A2A2A2A2A2AEA88
:10190000E8E061F0032057804C149F2A2A2A2A2AF3
:10191000352A2A2A2A2A2A2A2A2A2A2A2A2A2A2A1C
:101920002A2A2A2A2A2A2A2A2A2A2A2A2A2A2A2A17
:101930002A2A2A2A2A2A2A2A2A2A2A2A2A2A2A2A07
:101940002A2A2A2A2A2A2A2A2A2A2A2A2A2A2A2AF7
:101950002A2A2A2A2A2A2A2A2A2A2A2A2A2A2A2AE7
:101960002A2A2A2A2A2A2A2A2A2A2A2A2A2A2A2AD7
:101970002A2A2A2A2A2A2A2A2A2A2A2A2A2A2A2AC7
:101980002A2A2A2A2A2A2A2A2A2A2A2A2A2A2A2AB7
:101990002A2A2A2A2A2A2A2A2A2A2A2A2A2A2A2AA7
:1019A0002A2A2A2A2A2A2A2A2A2A2A2A2A2A2A2A97
:1019B0002A2A2A2A2A2A2A2A2A2A2A2A2A2A2A2A87
:1019C0002A2A2A2A2A2A2A2A2A2A2A2A2A2A2A2A77
:1019D0002A2A2A2A2A2A2A2A2A2A2A2A2A2A2A2A67
:1019E0002A2A2A2A2A2A2A2A2A2A2A2A2A2A2A2A57
:1019F0002A2A2A2A2A2A2A2A2A2A2A2A38A93BEAE9
:101A0000699BC9D7F0032057804C179F2A2A2A2A9E
:101A1000362A2A2A2A2A2A2A2A2A2A2A2A2A2A2A1A
:101A20002A2A2A2A2A2A2A2A2A2A2A2A2A2A2A2A16
:101A30002A2A2A2A2A2A2A2A2A2A2A2A2A2A2A2A06
:101A40002A2A2A2A2A2A2A2A2A2A2A2A2A2A2A2AF6
:101A50002A2A2A2A2A2A2A2A2A2A2A2A2A2A2A2AE6
:101A60002A2A2A2A2A2A2A2A2A2A2A2A2A2A2A2AD6
:101A70002A2A2A2A2A2A2A2A2A2A2A2A2A2A2A2AC6
:101A80002A2A2A2A2A2A2A2A2A2A2A2A2A2A2A2AB6
:101A90002A2A2A2A2A2A2A2A2A2A2A2A2A2A2A2AA6
:101AA0002A2A2A2A2A2A2A2A2A2A2A2A2A2A2A2A96
:101AB0002A2A2A2A2A2A2A2A2A2A2A2A2A2A2A2A86
:101AC0002A2A2A2A2A2A2A2A2A2A2A2A2A2A2A2A76
:101AD0002A2A2A2A2A2A2A2A2A2A2A2A2A2A2A2A66
:101AE0002A2A2A2A2A2A2A2A2A2A2A2A2A2A2A2A56
:101AF0002A2A2A2A2A2A2A2A2A2A2A38A977EA09CD
:101B0000F0C9F7F0032057804C1A9F2A2A2A2A2A64
:101B1000372A2A2A2A2A2A2A2A2A2A2A2A2A2A2A18
:101B20002A2A2A2A2A2A2A2A2A2A2A2A2A2A2A2A15
:101B30002A2A2A2A2A2A2A2A2A2A2A2A2A2A2A2A05
:101B40002A2A2A2A2A2A2A2A2A2A2A2A2A2A2A2AF5
:101B50002A2A2A2A2A2A2A2A2A2A2A2A2A2A2A2AE5
:101B60002A2A2A2A2A2A2A2A2A2A2A2A2A2A2A2AD5
:101B70002A2A2A2A2A2A2A2A2A2A2A2A2A2A2A2AC5
:101B80002A2A2A2A2A2A2A2A2A2A2A2A2A2A2A2AB5
:101B90002A2A2A2A2A2A2A2A2A2A2A2A2A2A2A2AA5
:101BA0002A2A2A2A2A2A2A2A2A2A2A2A2A2A2A2A95
:101BB0002A2A2A2A2A2A2A2A2A2A2A2A2A2A2A2A85
:101BC0002A2A2A2A2A2A2A2A2A2A2A2A2A2A2A2A75
:101BD0002A2A2A2A2A2A2A2A2A2A2A2A2A2A2A2A65
:101BE0002A2A2A2A2A2A2A2A2A2A2A2A2A2A2A2A55
:101BF0002A2A2A2A38A9C18D2006A991EAED2006B1
:101C0000C9D0F0032057804C1D9F2A2A2A2A2A2A4D
:101C1000382A2A2A2A2A2A2A2A2A2A2A2A2A2A2A16
:101C20002A2A2A2A2A2A2A2A2A2A2A2A2A2A2A2A14
:101C30002A2A2A2A2A2A2A2A2A2A2A2A2A2A2A2A04
:101C40002A2A2A2A2A2A2A2A2A2A2A2A2A2A2A2AF4
:101C50002A2A2A2A2A2A2A2A2A2A2A2A2A2A2A2AE4
:101C60002A2A2A2A2A2A2A2A2A2A2A2A2A2A2A2AD4
:101C70002A2A2A2A2A2A2A2A2A2A2A2A2A2A2A2AC4
:101C80002A2A2A2A2A2A2A2A2A2A2A2A2A2A2A2AB4
:101C90002A2A2A2A2A2A2A2A2A2A2A2A2A2A2A2AA4
:101CA0002A2A2A2A2A2A2A2A2A2A2A2A2A2A2A2A94
:101CB0002A2A2A2A2A2A2A2A2A2A2A2A2A2A2A2A84
:101CC0002A2A2A2A2A2A2A2A2A2A2A2A2A2A2A2A74
:101CD0002A2A2A2A2A2A2A2A2A2A2A2A2A2A2A2A64
:101CE0002A2A2A2A2A2A2A2A2A2A2A2A2A2A2A2A54
:101CF0002A2A2A2A2A2A2A2A2A2A209FEA6CFA9C95
:101D00004C239F2A2A2A2A2A2A2A2A2A2A2A2A2AA3
:101D1000392A2A2A2A2A2A2A2A2A2A2A2A2A2A2A14
:101D20002A2A2A2A2A2A2A2A2A2A2A2A2A2A2A2A13
:101D30002A2A2A2A2A2A2A2A2A2A2A2A2A2A2A2A03
:101D40002A2A2A2A2A2A2A2A2A2A2A2A2A2A2A2AF3
:101D50002A2A2A2A2A2A2A2A2A2A2A2A2A2A2A2AE3
:101D60002A2A2A2A2A2A2A2A2A2A2A2A2A2A2A2AD3
:101D70002A2A2A2A2A2A2A2A2A2A2A2A2A2A2A2AC3
:101D80002A2A2A2A2A2A2A2A2A2A2A2A2A2A2A2AB3
:101D90002A2A2A2A2A2A2A2A2A2A2A2A2A2A2A2AA3
:101DA0002A2A2A2A2A2A2A2A2A2A2A2A2A2A2A2A93
:101DB0002A2A2A2A2A2A2A2A2A2A2A2A2A2A2A2A83
:101DC0002A2A2A2A2A2A2A2A2A2A2A2A2A2A2A2A73
:101DD0002A2A2A2A2A2A2A2A2A2A2A2A2A2A2A2A63
:101DE0002A2A2A2A2A2A2A2A2A2A2A2A2A2A2A2A53
:101DF0002A2A2A2A2A2A2A2A2A2A2A269FEA6CFBFF
:101E00009D4C299F2A2A2A2A2A2A2A2A2A2A2A2A29
:101E100031302A2A2A2A2A2A2A2A2A2A2A2A2A2A15
:101E20002A2A2A2A2A2A2A2A2A2A2A2A2A2A2A2A12
:101E30002A2A2A2A2A2A2A2A2A2A2A2A2A2A2A2A02
:101E40002A2A2A2A2A2A2A2A2A2A2A2A2A2A2A2AF2
:101E50002A2A2A2A2A2A2A2A2A2A2A2A2A2A2A2AE2
:101E60002A2A2A2A2A2A2A2A2A2A2A2A2A2A2A2AD2
:101E70002A2A2A2A2A2A2A2A2A2A2A2A2A2A2A2AC2
:101E80002A2A2A2A2A2A2A2A2A2A2A2A2A2A2A2AB2
:101E90002A2A2A2A2A2A2A2A2A2A2A2A2A2A2A2AA2
:101EA0002A2A2A2A2A2A2A2A2A2A2A2A2A2A2A2A92
:101EB0002A2A2A2A2A2A2A2A2A2A2A2A2A2A2A2A82
:101EC0002A2A2A2A2A2A2A2A2A2A2A2A2A2A2A2A72
:101ED0002A2A2A2A2A2A2A2A2A2A2A2A2A2A2A2A62
:101EE0002A2A2A2A2A2A2A2A2A2A2A2A2A2A2A2A52
:101EF0002A2A2A2A2A2A2A2A2A2A2A2A2C9FEA6CC9
:101F0000FC9E4C2F9F4CFE944CFD954CFC964CFC3B
:101F1000974CFF984CFC994CFB9A4CF49B4CFC9CC6
:101F20004C009D4CFD9D4C019E4CFE9E4C029FAD75
:101F3000978F8500AD988F8501207F8E600101000D
:101F40000000000000000000000000000000000091
:101F50000000000000000000000000000000000081
:101F60000000000000000000000000000000000071
:101F70000000000000000000000000000000000061
:101F80000000000000000000000000000000000051
:101F90000000000000000000000000000000000041
:101FA0000000000000000000000000000000000031
:101FB0000000000000000000000000000000000021
:101FC0000000000000000000000000000000000011
:101FD0000000000000000000000000000000000001
:101FE00000000000000000000000000000000000F1
:101FF00000000000000000000000358400800000A8
:1020000000000000000000000000000000000000D0
:1020100000000000000000000000000000000000C0
:1020200000000000000000000000000000000000B0
:1020300000000000000000000000000000000000A0
:107FF0000000000000000000000035840080000048
:00000001FF
