:1000000078A2FF9A20238F20D98EAD518F8500AD25
:10001000528F850120798E20009420BF8C20878B01
:1000200020098B20A08A20A98820B98420DC812087
:10003000F38120C883207981AD6C8F8500AD6D8FF1
:10004000850120798E4C5F80AD3D9FD005A90020B1
:100050000000AD808F8500AD818F850120798EA94C
:10006000238D0620A9C18D0620A9D88D0720A900BF
:100070008D0520A9008D0520A93C8D0603A91E8DA4
:1000800001208D0503A9808D00208D04034C8D80F7
:1000900018A9508510A90A6510A9BB8D1004A9756F
:1000A0002D1004A2CC8E2004A9755D5403A25D8698
:1000B00066A9A23509A9EE8504A9058505A9818D42
:1000C0003E06A050A9FA1104A9128583A9038584CC
:1000D000A9128D1203A92E38A233E150CA88E8C8AC
:1000E0000A2A4A6AA94585676901A0909991001872
:1000F00069448D66086910A2E49D9104A93E85912A
:10010000A9038592A0759191A934857EA906857F62
:10011000A299A9D281E5A98085254625A940857B9C
:10012000A22B387650A95C8D2502182E2502A9F441
:100130008D1604A2221EF403A94448A95568A944B7
:10014000D0034C42816C4A81EAEA4E81EAEA60209F
:10015000D18EADE18F8500ADE28F850120798EA92A
:10016000088D0320A9148D0420A94D8D0420A90316
:100170008D0420A9648D042060ADF28F8500ADF35D
:100180008F850120798EA9508D0C02A9648D0D02F6
:10019000A9038D0E02A9648D0F02A95A8D1002A920
:1001A000648D1102A9038D1202A9328D1302A96474
:1001B0008D2002A9658D2102A9038D2202A9C88D77
:1001C0002302A91E8D3002A9448D3102A9038D326C
:1001D00002A9C88D3302A9028D14406020D18EADD2
:1001E00010908500AD1190850120798E204F8120DF
:1001F000798160A212A0E5A9558D7804A9C3187D64
:100200006604C918F003204880A9558D4B05A9F153
:1002100018796604C946F003204880A9558D1C054D
:10022000A91C8566A9058567A9C338E154C96EF084
:1002300003204880A9558D2204A922850AA9048596
:100240000BA9C301F8C9D7F003204880A9558D9E9A
:1002500005A98C8554A9058555A012A9C33154C997
:1002600041F003204880A9668D7106A98C8554A9A8
:10027000058555A0E5A9C35154C9A5F003204880C0
:10028000A9159D5503CD6703F003204880A9679900
:100290005503EC3A04D003204880CD3A04F0032003
:1002A0004880A9FF85A2A90485A3A9888190ADFFF4
:1002B00004C9E5D003204880C988F003204880A9FC
:1002C000FF85FFA9058500A9D181EDADFF05C9E531
:1002D000D003204880C9D1F003204880A9F185FFD0
:1002E000A9058500A003A9A591FFADF405C9A5F056
:1002F00003204880A9FF85FFA9068500A012A9DD7B
:1003000091FFAD1107C9DDF003204880A9558D7814
:1003100004387E6604AD7804C9AAF003204880A2A0
:10032000E5A9A58D7604383E9103AD7604C94BF05E
:10033000032048804CB183A902C903D07A00000091
:1003400000000000000000000000000000000000AD
:10035000000000000000000000000000000000009D
:10036000000000000000000000000000000000008D
:10037000000000000000000000000000000000007D
:10038000000000000000000000000000000000006D
:10039000000000000000000000000000000000005D
:1003A000000000000000000000000000000000004D
:1003B00000A901C901F08020D18EADB48F8500ADB8
:1003C000B58F850120798E60AD3E9FD00160A00081
:1003D000A2418600A2008A990002C8A500C95BD08C
:1003E00004A9418500E600990002C8A9039900020A
:1003F000C88A6903AA2A990002C8D0DAA9028D1412
:100400004020D18EADD38F8500ADD48F850120796A
:100410008E60AD3E9FD00160A000C8C8C8B9000280
:10042000186901990002C8D0F1A9028D144060201A
:10043000398420998420128440CE0603D050AD0523
:100440000329E78D01208D0503A93C8D0603AD0727
:1004500003F008CE0703A9314C6084EE0703A932EC
:10046000AE00038E0620AE01038E0620A2338E0757
:1004700020AE00038E0620EE0103AE01038E06209F
:100480008D0720AD050309188D01208D0503A932C4
:100490008D0520A9C88D052060AD0203EE0203EE94
:1004A00002031865018D0520AE0303E8E0F0D002D9
:1004B000A2008E05208E030360ADA38F8500ADA43E
:1004C0008F850120798E08A9004828A9EA086829A3
:1004D000EFC9A0F003204880A9004828A9000868B7
:1004E00029EFC922F003204880A9004828A2A408C7
:1004F0006829EFC9A0F003204880A9004828A2007D
:10050000086829EFC922F003204880A9004828A0E4
:100510002B086829EFC920F003204880A90048284B
:10052000A0BB086829EFC9A0F003204880A90048B3
:1005300028A000086829EFC922F003204880A9FB01
:10054000A9C348288D0105086829EFC9E3F00320F5
:100550004880A2FBA9C348288E0F05086829EFC967
:10056000E3F003204880A000A9C348288C100508A8
:100570006829EFC9E3F003204880A9C34828AA08E6
:100580006829EFC9E1F003204880A9004828AA089B
:100590006829EFC922F003204880A9C34828A80889
:1005A0006829EFC9E1F003204880C0C3F003204868
:1005B00080A9004828A8086829EFC922F00320482C
:1005C00080C000F003204880A9C34828BA086829E1
:1005D000EFC9E1F003204880BA8AA8A900AA9AA925
:1005E000C34828BA086829EFC963F003204880E0AF
:1005F00000F00320488098AA9AA259A9C348288AE3
:10060000086829EFC961F003204880A2ACA9C3485B
:10061000288A086829EFC9E1F003204880A200A9D0
:10062000C348288A086829EFC963F003204880BAC4
:100630008AA8A200A9C348289A086829EFC963F0CC
:1006400000A29AA9C348289A086829EFC9E1F000D6
:1006500098AA9AA000A9C3482898086829EFC963F6
:10066000F003204880A0B5A9C3482898086829EF5E
:10067000C9E1F003204880A9C34828A0C0845018CD
:10068000A930655008AA6829EFC9A0F00320488066
:10069000E0F0F003204880A9C34828A0EE8C500564
:1006A00038A9AD6D500508AA6829EFC9A1F003204B
:1006B0004880E09CF003204880A9C34828A0EE8C25
:1006C000510538A9116D500508AA6829EFC923F012
:1006D00003204880E000F003204880A9C34828A0F8
:1006E0004B8C520538A9646D520508AA6829EFC9D8
:1006F000E0F003204880E0B0F003204880A9C34820
:1007000028A08E84E4A9B3A23035B408AA6829EFE2
:10071000C9E1F003204880E082F003204880A9C3AB
:100720004828A07E8CE404A981A2303DB40408AA24
:100730006829EFC963F003204880E000F0032048F7
:1007400080A9C34828A9B30A08AA6829EFC961F09B
:1007500003204880E066F003204880A9C34828A908
:1007600061857BA2CE16AD086829EFC9E0F00320B1
:100770004880B4ADC0C2F003204880A9C34828A96E
:100780008085E506E5086829EFC963F00320488005
:10079000A4E5C000F003204880A9C34828A900852B
:1007A000E5A90124E5086829EFC923F00320488062
:1007B000A9C34828A94A8D4004A9012C400408680F
:1007C00029EFC963F003204880A9C34828A9918D67
:1007D000E504A9E5A0F2D9F303086829EFC961F09F
:1007E00003204880A9C34828A2E58EE504A9E5A016
:1007F000F2D9F303086829EFC963F003204880A900
:10080000C34828A27E8ED705A9E58510A9048511C5
:10081000A0F2A945D110086829EFC9E0F0032048EB
:1008200080BA8650A2D9A9C348289A086829EFC976
:10083000E1F000A200A9C348289A086829EFC9631B
:10084000F000A6509AA000A90BA9C34828980868F0
:1008500029EFC963F00320488098C900F0032048BD
:1008600080A0B0A900A9C3482898086829EFC9E169
:10087000F00320488098C9B0F003204880A976850D
:1008800072A9058573A9918D7605A2A3A9C34828ED
:10089000A99961CF08AA6829EFC961F003204880AF
:1008A000E02BF0032048802860AD23908500AD2424
:1008B00090850120798E18900320488038B003205D
:1008C0004880A900F00320488018E905300320483B
:1008D00080D003204880186906100320488038A97A
:1008E00092E946700320488038A992E9125003200B
:1008F0004880A900A200F07B4C7389EAEAEAEAEAA0
:10090000EAEAEAEAEAEAEAEAEAEAEAEAEAEAEAEA47
:10091000EAEAEAEAEAEAEAEAEAEAEAEAEAEAEAEA37
:10092000EAEAEAEAEAEAEAEAEAEAEAEAEAEAEAEA27
:10093000EAEAEAEAEAEAEAEAEAEAEAEAEAEAEAEA17
:10094000EAEAEAEAEAEAEAEAEAEAEAEAEAEAEAEA07
:10095000EAEAEAEAEAEAEAEAEAEAEAEAEAEAEAEAF7
:10096000EAEAEAEAEAEAEAEAEAEAEAEAEAEAEAEAE7
:10097000EAEAEAE8E001F080A900A200F07B4CF985
:1009800089EAEAEAEAEAEAEAEAEAEAEAEAEAEAEA28
:10099000EAEAEAEAEAEAEAEAEAEAEAEAEAEAEAEAB7
:1009A000EAEAEAEAEAEAEAEAEAEAEAEAEAEAEAEAA7
:1009B000EAEAEAEAEAEAEAEAEAEAEAEAEAEAEAEA97
:1009C000EAEAEAEAEAEAEAEAEAEAEAEAEAEAEAEA87
:1009D000EAEAEAEAEAEAEAEAEAEAEAEAEAEAEAEA77
:1009E000EAEAEAEAEAEAEAEAEAEAEAEAEAEAEAEA67
:1009F000EAEAEAEAEAEAEAEAEAE8E001F08018A9C3
:100A000064200B8AC9C8F00E204880200F8A60201D
:100A1000138A6069646038A9C84C268A69324C2BF5
:100A20008A4C1C8A69324C218A6932C9FBF0032046
:100A3000488038A9C36C388A4A8A408A458A4F8AD6
:100A40006C3C8A69E669E66C3E8A6C3A8A69E6C95A
:100A5000AAF003204880A92348A94648A96E48382F
:100A60000878081808A9FF08A90008A9FF28F003BA
:100A70002048802830032048802890032048802880
:100A800028B0032048805868C96EF0032048806869
:100A9000C946F00320488068C923F00320488060DD
:100AA000AD35908500AD3690850120798EA93985C8
:100AB0006BA9A18DCC04A99F85FFA2FD066BA56B38
:100AC000C972F003204880CECC04ADCC04C9A0F09C
:100AD000032048805ECF03ADCC04C950F00320480A
:100AE00080F602A5FFC9A0F0032048801836023620
:100AF00002A5FFC981F0032048803876027602A55E
:100B0000FFC9E0F00320488060AD47908500AD4804
:100B100090850120798EA97885A1A90585A2A9B71C
:100B2000A2E1A08A85A98E990A9D800D941F91A1AA
:100B3000C5A9F003204880EC990AF003204880CD35
:100B4000610EF003204880C400F003204880CD02ED
:100B500006F003204880A9F185B0A90585B1A27CE3
:100B6000A9618134ADF105C961F003204880A9AACB
:100B70008520A9048521A0EC8CAA04A21BA105C98B
:100B8000ECF00320488060AD59908500AD5A908507
:100B90000120798E18A90D69FAC907F00320488051
:100BA000A937855EA9C98571A9B6255E2471F003B0
:100BB000204880A93B8D2104A9D78D1B05A9EB8D69
:100BC000CC06AE2104E88A4D1B05A8CCCC06F00368
:100BD000204880A217A0A1A92F8D5903A990999010
:100BE000018A19900138FD4203A8C068F00320482B
:100BF00080A2CDA9F18535A9AC85BCA98D3568A0A9
:100C00009A592200AAE02DF003204880A938859047
:100C1000A9088591A9D98D0209A90AA0CA187190BD
:100C2000C9E3F003204880A93385C0A90485C1A980
:100C3000D08D3304A26BA922386155C9F3F003208B
:100C40004880A93485C1A90485C2A9F58D3404E87A
:100C5000A91F2155C915F003204880A93585C2A9CF
:100C60000485C3A0758C3504E8A975C155F003202F
:100C70004880A93685C3A90485C4A9888D3604E8AF
:100C8000A9C14155C949F003204880A93785C4A9A5
:100C90000485C5A92E8D3704E8A9910155C9BFF077
:100CA00003204880A93885C5A90485C6A97F8D3849
:100CB00004E8A96A18E155C9EAF00320488060AD4C
:100CC0006B908500AD6C90850120798EA980180A03
:100CD000F003204880B00320488010032048800A99
:100CE000F00320488090032048801003204880A90A
:100CF000400AD003204880900320488030032048D9
:100D000080C980F003204880A9A50AC94AF00320C1
:100D100048800AC994F003204880A901084828B0F7
:100D20000320488018900320488028A940084828BC
:100D30007003204880B8500320488028A203CAD0FE
:100D400003204880E002F003204880100320488000
:100D5000CAD003204880E001F0032048801003201F
:100D60004880CAF003204880E000F003204880104B
:100D700003204880CAD0032048803003204880E008
:100D8000FFF003204880A2803003204880CA10036F
:100D9000204880E07FF003204880A05088C04FF0BA
:100DA0000320488088C04EF003204880C8C04FF020
:100DB00003204880E8E080F003204880A901184A19
:100DC000F003204880B0032048804AF00320488088
:100DD0009003204880A95A4AC92DF003204880A9D1
:100DE000A5386AC9D2F0032048806A900320488061
:100DF000C9E9F003204880182A2AC9A5F003204831
:100E000080B00320488008A900482890032048802B
:100E100038B0032048807808682904D0032048802F
:100E20005808682904F00320488028A901AA100363
:100E3000204880D003204880E001F003204880CA89
:100E40008A1003204880F003204880A901A8C8C860
:100E500098C003F003204880BA8600A2309AA9DD2A
:100E600048BAE02FF003204880A6009AA9EEAD30E2
:100E700001C9DDF0032048806020D18EAD00038DD4
:100E80000620AD01038D0620A000B1008D0720F0E3
:100E900004C84C8A8E98291FC91FF009A9008D0724
:100EA00020C84C958EAD01038C01036D01038D01AB
:100EB00003AAAD000390061869018D0003C923D071
:100EC0000F8AC9C0D00AA9208D0003A9008D010393
:100ED00060AD3D9FD00268686020D18EA9008D0072
:100EE000208D04038D01208D0503A93F8D0620A9C7
:100EF000008D0620A200A020BD038F8D0720E8886A
:100F0000D0F6600F0010200F0414240F0818280FCB
:100F10000C1C2C0F0010200F0616260F0818280F87
:100F20000A1A2AAD3D9FF028A9208D0003A9018D42
:100F30000103A9008D0203A9008D0303A9008D04FC
:100F400003A9008D0503A9008D0603A9008D0703E1
:100F500060538F72656772657373696F6E20746515
:100F600073742073746172742E2E2E006E8F7465EC
:100F70007374207375636365656465642E2E2E003B
:100F8000828F74657374206661696C6564212121A8
:100F900000938F6164647265737320746573742E3B
:100FA0002E2E00A58F73746174757320746573742D
:100FB0002E2E2E00B68F7061676520626F72646599
:100FC000722063726F7373696E6720746573742E19
:100FD0002E2E00D58F646D6120746573742E2E2EB5
:100FE00000E38F73707269746520746573742E2EBC
:100FF0002E00F48F73696D706C6520737072697464
:101000006520746573742028646D61292E2E2E006E
:10101000129070707520696E737420746573742EED
:101020002E2E002590613520696E737420746573CF
:10103000742E2E2E003790613420696E73742074E4
:101040006573742E2E2E004990613320696E73747F
:1010500020746573742E2E2E005B90613220696EB1
:10106000737420746573742E2E2E006D9073696EE8
:10107000676C65206279746520696E73742074658D
:1010800073742E2E2E0000000000000000000000EF
:101090000000000000000000000000000000000050
:1010A0000000000000000000000000000000000040
:1010B0000000000000000000000000000000000030
:1010C0000000000000000000000000000000000020
:101400004C059F2A2A2A2A2A2A2A2A2A2A2A2A2ACA
:10141000302A2A2A2A2A2A2A2A2A2A2A2A2A2A2A26
:101420002A2A2A2A2A2A2A2A2A2A2A2A2A2A2A2A1C
:101430002A2A2A2A2A2A2A2A2A2A2A2A2A2A2A2A0C
:101440002A2A2A2A2A2A2A2A2A2A2A2A2A2A2A2AFC
:101450002A2A2A2A2A2A2A2A2A2A2A2A2A2A2A2AEC
:101460002A2A2A2A2A2A2A2A2A2A2A2A2A2A2A2ADC
:101470002A2A2A2A2A2A2A2A2A2A2A2A2A2A2A2ACC
:101480002A2A2A2A2A2A2A2A2A2A2A2A2A2A2A2ABC
:101490002A2A2A2A2A2A2A2A2A2A2A2A2A2A2A2AAC
:1014A0002A2A2A2A2A2A2A2A2A2A2A2A2A2A2A2A9C
:1014B0002A2A2A2A2A2A2A2A2A2A2A2A2A2A2A2A8C
:1014C0002A2A2A2A2A2A2A2A2A2A2A2A2A2A2A2A7C
:1014D0002A2A2A2A2A2A2A2A2A2A2A2A2A2A2A2A6C
:1014E0002A2A2A2A2A2A2A2A2A2A2A2A2A2A2A2A5C
:1014F0002A2A2A2A2A2A2A2A2A2A2A2A2A2AEA4C6A
:10150000089F2A2A2A2A2A2A2A2A2A2A2A2A2A2AE8
:10151000312A2A2A2A2A2A2A2A2A2A2A2A2A2A2A24
:101520002A2A2A2A2A2A2A2A2A2A2A2A2A2A2A2A1B
:101530002A2A2A2A2A2A2A2A2A2A2A2A2A2A2A2A0B
:101540002A2A2A2A2A2A2A2A2A2A2A2A2A2A2A2AFB
:101550002A2A2A2A2A2A2A2A2A2A2A2A2A2A2A2AEB
:101560002A2A2A2A2A2A2A2A2A2A2A2A2A2A2A2ADB
:101570002A2A2A2A2A2A2A2A2A2A2A2A2A2A2A2ACB
:101580002A2A2A2A2A2A2A2A2A2A2A2A2A2A2A2ABB
:101590002A2A2A2A2A2A2A2A2A2A2A2A2A2A2A2AAB
:1015A0002A2A2A2A2A2A2A2A2A2A2A2A2A2A2A2A9B
:1015B0002A2A2A2A2A2A2A2A2A2A2A2A2A2A2A2A8B
:1015C0002A2A2A2A2A2A2A2A2A2A2A2A2A2A2A2A7B
:1015D0002A2A2A2A2A2A2A2A2A2A2A2A2A2A2A2A6B
:1015E0002A2A2A2A2A2A2A2A2A2A2A2A2A2A2A2A5B
:1015F0002A2A2A2A2A2A2A2A2A2A2A2A2AEA4C0B88
:101600009F2A2A2A2A2A2A2A2A2A2A2A2A2A2A2AC5
:10161000322A2A2A2A2A2A2A2A2A2A2A2A2A2A2A22
:101620002A2A2A2A2A2A2A2A2A2A2A2A2A2A2A2A1A
:101630002A2A2A2A2A2A2A2A2A2A2A2A2A2A2A2A0A
:101640002A2A2A2A2A2A2A2A2A2A2A2A2A2A2A2AFA
:101650002A2A2A2A2A2A2A2A2A2A2A2A2A2A2A2AEA
:101660002A2A2A2A2A2A2A2A2A2A2A2A2A2A2A2ADA
:101670002A2A2A2A2A2A2A2A2A2A2A2A2A2A2A2ACA
:101680002A2A2A2A2A2A2A2A2A2A2A2A2A2A2A2ABA
:101690002A2A2A2A2A2A2A2A2A2A2A2A2A2A2A2AAA
:1016A0002A2A2A2A2A2A2A2A2A2A2A2A2A2A2A2A9A
:1016B0002A2A2A2A2A2A2A2A2A2A2A2A2A2A2A2A8A
:1016C0002A2A2A2A2A2A2A2A2A2A2A2A2A2A2A2A7A
:1016D0002A2A2A2A2A2A2A2A2A2A2A2A2A2A2A2A6A
:1016E0002A2A2A2A2A2A2A2A2A2A2A2A2A2A2A2A5A
:1016F0002A2A2A2A2A2A2A2A2A2A2A2AEA4C0E9F0F
:10170000332A2A2A2A2A2A2A2A2A2A2A2A2A2A2A30
:101710002A2A2A2A2A2A2A2A2A2A2A2A2A2A2A2A29
:101720002A2A2A2A2A2A2A2A2A2A2A2A2A2A2A2A19
:101730002A2A2A2A2A2A2A2A2A2A2A2A2A2A2A2A09
:101740002A2A2A2A2A2A2A2A2A2A2A2A2A2A2A2AF9
:101750002A2A2A2A2A2A2A2A2A2A2A2A2A2A2A2AE9
:101760002A2A2A2A2A2A2A2A2A2A2A2A2A2A2A2AD9
:101770002A2A2A2A2A2A2A2A2A2A2A2A2A2A2A2AC9
:101780002A2A2A2A2A2A2A2A2A2A2A2A2A2A2A2AB9
:101790002A2A2A2A2A2A2A2A2A2A2A2A2A2A2A2AA9
:1017A0002A2A2A2A2A2A2A2A2A2A2A2A2A2A2A2A99
:1017B0002A2A2A2A2A2A2A2A2A2A2A2A2A2A2A2A89
:1017C0002A2A2A2A2A2A2A2A2A2A2A2A2A2A2A2A79
:1017D0002A2A2A2A2A2A2A2A2A2A2A2A2A2A2A2A69
:1017E0002A2A2A2A2A2A2A2A2A2A2A2A2A2A2A2A59
:1017F0002A2A2A2A2A2A2A2A2A2A2A2AA25FEAE81E
:10180000E060F0032048804C119F2A2A2A2A2A2AC5
:10181000342A2A2A2A2A2A2A2A2A2A2A2A2A2A2A1E
:101820002A2A2A2A2A2A2A2A2A2A2A2A2A2A2A2A18
:101830002A2A2A2A2A2A2A2A2A2A2A2A2A2A2A2A08
:101840002A2A2A2A2A2A2A2A2A2A2A2A2A2A2A2AF8
:101850002A2A2A2A2A2A2A2A2A2A2A2A2A2A2A2AE8
:101860002A2A2A2A2A2A2A2A2A2A2A2A2A2A2A2AD8
:101870002A2A2A2A2A2A2A2A2A2A2A2A2A2A2A2AC8
:101880002A2A2A2A2A2A2A2A2A2A2A2A2A2A2A2AB8
:101890002A2A2A2A2A2A2A2A2A2A2A2A2A2A2A2AA8
:1018A0002A2A2A2A2A2A2A2A2A2A2A2A2A2A2A2A98
:1018B0002A2A2A2A2A2A2A2A2A2A2A2A2A2A2A2A88
:1018C0002A2A2A2A2A2A2A2A2A2A2A2A2A2A2A2A78
:1018D0002A2A2A2A2A2A2A2A2A2A2A2A2A2A2A2A68
:1018E0002A2A2A2A2A2A2A2A2A2A2A2A2A2A2A2A58
:1018F0002A2A2A2A2A2A2A2A2A2A2A2A2A2A2AEA88
:10190000E8E061F0032048804C149F2A2A2A2A2A02
:10191000352A2A2A2A2A2A2A2A2A2A2A2A2A2A2A1C
:101920002A2A2A2A2A2A2A2A2A2A2A2A2A2A2A2A17
:101930002A2A2A2A2A2A2A2A2A2A2A2A2A2A2A2A07
:101940002A2A2A2A2A2A2A2A2A2A2A2A2A2A2A2AF7
:101950002A2A2A2A2A2A2A2A2A2A2A2A2A2A2A2AE7
:101960002A2A2A2A2A2A2A2A2A2A2A2A2A2A2A2AD7
:101970002A2A2A2A2A2A2A2A2A2A2A2A2A2A2A2AC7
:101980002A2A2A2A2A2A2A2A2A2A2A2A2A2A2A2AB7
:101990002A2A2A2A2A2A2A2A2A2A2A2A2A2A2A2AA7
:1019A0002A2A2A2A2A2A2A2A2A2A2A2A2A2A2A2A97
:1019B0002A2A2A2A2A2A2A2A2A2A2A2A2A2A2A2A87
:1019C0002A2A2A2A2A2A2A2A2A2A2A2A2A2A2A2A77
:1019D0002A2A2A2A2A2A2A2A2A2A2A2A2A2A2A2A67
:1019E0002A2A2A2A2A2A2A2A2A2A2A2A2A2A2A2A57
:1019F0002A2A2A2A2A2A2A2A2A2A2A2A38A93BEAE9
:101A0000699BC9D7F0032048804C179F2A2A2A2AAD
:101A1000362A2A2A2A2A2A2A2A2A2A2A2A2A2A2A1A
:101A20002A2A2A2A2A2A2A2A2A2A2A2A2A2A2A2A16
:101A30002A2A2A2A2A2A2A2A2A2A2A2A2A2A2A2A06
:101A40002A2A2A2A2A2A2A2A2A2A2A2A2A2A2A2AF6
:101A50002A2A2A2A2A2A2A2A2A2A2A2A2A2A2A2AE6
:101A60002A2A2A2A2A2A2A2A2A2A2A2A2A2A2A2AD6
:101A70002A2A2A2A2A2A2A2A2A2A2A2A2A2A2A2AC6
:101A80002A2A2A2A2A2A2A2A2A2A2A2A2A2A2A2AB6
:101A90002A2A2A2A2A2A2A2A2A2A2A2A2A2A2A2AA6
:101AA0002A2A2A2A2A2A2A2A2A2A2A2A2A2A2A2A96
:101AB0002A2A2A2A2A2A2A2A2A2A2A2A2A2A2A2A86
:101AC0002A2A2A2A2A2A2A2A2A2A2A2A2A2A2A2A76
:101AD0002A2A2A2A2A2A2A2A2A2A2A2A2A2A2A2A66
:101AE0002A2A2A2A2A2A2A2A2A2A2A2A2A2A2A2A56
:101AF0002A2A2A2A2A2A2A2A2A2A2A38A977EA09CD
:101B0000F0C9F7F0032048804C1A9F2A2A2A2A2A73
:101B1000372A2A2A2A2A2A2A2A2A2A2A2A2A2A2A18
:101B20002A2A2A2A2A2A2A2A2A2A2A2A2A2A2A2A15
:101B30002A2A2A2A2A2A2A2A2A2A2A2A2A2A2A2A05
:101B40002A2A2A2A2A2A2A2A2A2A2A2A2A2A2A2AF5
:101B50002A2A2A2A2A2A2A2A2A2A2A2A2A2A2A2AE5
:101B60002A2A2A2A2A2A2A2A2A2A2A2A2A2A2A2AD5
:101B70002A2A2A2A2A2A2A2A2A2A2A2A2A2A2A2AC5
:101B80002A2A2A2A2A2A2A2A2A2A2A2A2A2A2A2AB5
:101B90002A2A2A2A2A2A2A2A2A2A2A2A2A2A2A2AA5
:101BA0002A2A2A2A2A2A2A2A2A2A2A2A2A2A2A2A95
:101BB0002A2A2A2A2A2A2A2A2A2A2A2A2A2A2A2A85
:101BC0002A2A2A2A2A2A2A2A2A2A2A2A2A2A2A2A75
:101BD0002A2A2A2A2A2A2A2A2A2A2A2A2A2A2A2A65
:101BE0002A2A2A2A2A2A2A2A2A2A2A2A2A2A2A2A55
:101BF0002A2A2A2A38A9C18D2006A991EAED2006B1
:101C0000C9D0F0032048804C1D9F2A2A2A2A2A2A5C
:101C1000382A2A2A2A2A2A2A2A2A2A2A2A2A2A2A16
:101C20002A2A2A2A2A2A2A2A2A2A2A2A2A2A2A2A14
:101C30002A2A2A2A2A2A2A2A2A2A2A2A2A2A2A2A04
:101C40002A2A2A2A2A2A2A2A2A2A2A2A2A2A2A2AF4
:101C50002A2A2A2A2A2A2A2A2A2A2A2A2A2A2A2AE4
:101C60002A2A2A2A2A2A2A2A2A2A2A2A2A2A2A2AD4
:101C70002A2A2A2A2A2A2A2A2A2A2A2A2A2A2A2AC4
:101C80002A2A2A2A2A2A2A2A2A2A2A2A2A2A2A2AB4
:101C90002A2A2A2A2A2A2A2A2A2A2A2A2A2A2A2AA4
:101CA0002A2A2A2A2A2A2A2A2A2A2A2A2A2A2A2A94
:101CB0002A2A2A2A2A2A2A2A2A2A2A2A2A2A2A2A84
:101CC0002A2A2A2A2A2A2A2A2A2A2A2A2A2A2A2A74
:101CD0002A2A2A2A2A2A2A2A2A2A2A2A2A2A2A2A64
:101CE0002A2A2A2A2A2A2A2A2A2A2A2A2A2A2A2A54
:101CF0002A2A2A2A2A2A2A2A2A2A209FEA6CFA9C95
:101D00004C239F2A2A2A2A2A2A2A2A2A2A2A2A2AA3
:101D1000392A2A2A2A2A2A2A2A2A2A2A2A2A2A2A14
:101D20002A2A2A2A2A2A2A2A2A2A2A2A2A2A2A2A13
:101D30002A2A2A2A2A2A2A2A2A2A2A2A2A2A2A2A03
:101D40002A2A2A2A2A2A2A2A2A2A2A2A2A2A2A2AF3
:101D50002A2A2A2A2A2A2A2A2A2A2A2A2A2A2A2AE3
:101D60002A2A2A2A2A2A2A2A2A2A2A2A2A2A2A2AD3
:101D70002A2A2A2A2A2A2A2A2A2A2A2A2A2A2A2AC3
:101D80002A2A2A2A2A2A2A2A2A2A2A2A2A2A2A2AB3
:101D90002A2A2A2A2A2A2A2A2A2A2A2A2A2A2A2AA3
:101DA0002A2A2A2A2A2A2A2A2A2A2A2A2A2A2A2A93
:101DB0002A2A2A2A2A2A2A2A2A2A2A2A2A2A2A2A83
:101DC0002A2A2A2A2A2A2A2A2A2A2A2A2A2A2A2A73
:101DD0002A2A2A2A2A2A2A2A2A2A2A2A2A2A2A2A63
:101DE0002A2A2A2A2A2A2A2A2A2A2A2A2A2A2A2A53
:101DF0002A2A2A2A2A2A2A2A2A2A2A269FEA6CFBFF
:101E00009D4C299F2A2A2A2A2A2A2A2A2A2A2A2A29
:101E100031302A2A2A2A2A2A2A2A2A2A2A2A2A2A15
:101E20002A2A2A2A2A2A2A2A2A2A2A2A2A2A2A2A12
:101E30002A2A2A2A2A2A2A2A2A2A2A2A2A2A2A2A02
:101E40002A2A2A2A2A2A2A2A2A2A2A2A2A2A2A2AF2
:101E50002A2A2A2A2A2A2A2A2A2A2A2A2A2A2A2AE2
:101E60002A2A2A2A2A2A2A2A2A2A2A2A2A2A2A2AD2
:101E70002A2A2A2A2A2A2A2A2A2A2A2A2A2A2A2AC2
:101E80002A2A2A2A2A2A2A2A2A2A2A2A2A2A2A2AB2
:101E90002A2A2A2A2A2A2A2A2A2A2A2A2A2A2A2AA2
:101EA0002A2A2A2A2A2A2A2A2A2A2A2A2A2A2A2A92
:101EB0002A2A2A2A2A2A2A2A2A2A2A2A2A2A2A2A82
:101EC0002A2A2A2A2A2A2A2A2A2A2A2A2A2A2A2A72
:101ED0002A2A2A2A2A2A2A2A2A2A2A2A2A2A2A2A62
:101EE0002A2A2A2A2A2A2A2A2A2A2A2A2A2A2A2A52
:101EF0002A2A2A2A2A2A2A2A2A2A2A2A2C9FEA6CC9
:101F0000FC9E4C2F9F4CFE944CFD954CFC964CFC3B
:101F1000974CFF984CFC994CFB9A4CF49B4CFC9CC6
:101F20004C009D4CFD9D4C019E4CFE9E4C029FAD75
:101F3000918F8500AD928F850120798E600101001F
:101F40000000000000000000000000000000000091
:101F50000000000000000000000000000000000081
:101F60000000000000000000000000000000000071
:101F70000000000000000000000000000000000061
:101F80000000000000000000000000000000000051
:101F90000000000000000000000000000000000041
:101FA0000000000000000000000000000000000031
:101FB0000000000000000000000000000000000021
:101FC0000000000000000000000000000000000011
:101FD0000000000000000000000000000000000001
:101FE00000000000000000000000000000000000F1
:101FF000000000000000000000002F8400800000AE
:1020000000000000000000000000000000000000D0
:1020100000000000000000000000000000000000C0
:1020200000000000000000000000000000000000B0
:1020300000000000000000000000000000000000A0
:107FF000000000000000000000002F84008000004E
:00000001FF
