:1000000078A2FF9A20708E20268EAD9E8E8500AD40
:100010009F8E850120C68D20C68D20C68D20C68D61
:1000200020C68D20C68D200094200C8C20D48A20E0
:10003000568A20ED8920F6872006842029812040D9
:1000400081201583ADB98E8500ADBA8E850120C69D
:100050008D4C6B80AD3D9FD005A900200000ADCD3B
:100060008E8500ADCE8E850120C68DA9238D0620FC
:10007000A9C18D0620A9D88D0720A9008D0520A92A
:10008000008D0520A93C8D0603A91E8D01208D053C
:1000900003A9808D00208D04034C9980201E8EAD15
:1000A0002E8F8500AD2F8F850120C68DA9088D0369
:1000B00020A9148D0420A94D8D0420A9038D0420AE
:1000C000A9648D042060AD3F8F8500AD408F850110
:1000D00020C68DA9508D0C02A9648D0D02A9038D37
:1000E0000E02A9648D0F02A95A8D1002A9648D1108
:1000F00002A9038D1202A9328D1302A9648D200278
:10010000A9658D2102A9038D2202A9C88D2302A908
:100110001E8D3002A9448D3102A9038D3202A9C877
:100120008D3302A9028D144060201E8EAD5D8F8537
:1001300000AD5E8F850120C68D209C8020C680602A
:10014000A212A0E5A9558D7804A9C3187D6604C93B
:1001500018F003205480A9558D4B05A9F118796634
:1001600004C946F003205480A9558D1C05A91C859F
:1001700066A9058567A9C338E154C96EF003205408
:1001800080A9558D2204A922850AA904850BA9C33B
:1001900001F8C9D7F003205480A9558D9E05A98C7C
:1001A0008554A9058555A012A9C33154C941F0034E
:1001B000205480A9668D7106A98C8554A9058555A2
:1001C000A0E5A9C35154C9A5F003205480A9159DE9
:1001D0005503CD6703F003205480A967995503ECBC
:1001E0003A04D003205480CD3A04F003205480A96F
:1001F000FF85A2A90485A3A9888190ADFF04C9E564
:10020000D003205480C988F003205480A9FF85FFC3
:10021000A9058500A9D181EDADFF05C9E5D0032071
:100220005480C9D1F003205480A9F185FFA9058528
:1002300000A003A9A591FFADF405C9A5F0032054C2
:1002400080A9FF85FFA9068500A012A9DD91FFAD59
:100250001107C9DDF003205480A9558D7804387E3C
:100260006604AD7804C9AAF003205480A2E5A9A5CC
:100270008D7604383E9103AD7604C94BF0032054CB
:10028000804CFE82A902C903D07A00000000000061
:10029000000000000000000000000000000000005E
:1002A000000000000000000000000000000000004E
:1002B000000000000000000000000000000000003E
:1002C000000000000000000000000000000000002E
:1002D000000000000000000000000000000000001E
:1002E000000000000000000000000000000000000E
:1002F0000000000000000000000000000000A90154
:10030000C901F080201E8EAD018F8500AD028F8562
:100310000120C68D60AD3E9FD00160A000A2418645
:1003200000A2008A990002C8A500C95BD004A941B7
:100330008500E600990002C8A903990002C88A69ED
:1003400003AA2A990002C8D0DAA9028D1440201EFF
:100350008EAD208F8500AD218F850120C68D60ADCB
:100360003E9FD00160A000C8C8C8B900021869014A
:10037000990002C8D0F1A9028D1440602086832024
:10038000E683205F8340CE0603D050AD050329E706
:100390008D01208D0503A93C8D0603AD0703F008F0
:1003A000CE0703A9314CAD83EE0703A932AE00039B
:1003B0008E0620AE01038E0620A2338E0720AE00EB
:1003C000038E0620EE0103AE01038E06208D07206A
:1003D000AD050309188D01208D0503A9328D052077
:1003E000A9C88D052060AD0203EE0203EE020318DA
:1003F00065018D0520AE0303E8E0F0D002A2008E77
:1004000005208E030360ADF08E8500ADF18E850171
:1004100020C68D08A9004828A9EA086829EFC9A0C4
:10042000F003205480A9004828A900086829EFC9D2
:1004300022F003205480A9004828A2A4086829EFCC
:10044000C9A0F003205480A9004828A20008682908
:10045000EFC922F003205480A9004828A02B086887
:1004600029EFC920F003205480A9004828A0BB0828
:100470006829EFC9A0F003205480A9004828A000F3
:10048000086829EFC922F003205480A9FBA9C348BA
:10049000288D0105086829EFC9E3F003205480A2E4
:1004A000FBA9C348288E0F05086829EFC9E3F003AC
:1004B000205480A000A9C348288C1005086829EFA3
:1004C000C9E3F003205480A9C34828AA086829EF8B
:1004D000C9E1F003205480A9004828AA086829EF40
:1004E000C922F003205480A9C34828A8086829EF2E
:1004F000C9E1F003205480C0C3F003205480A90058
:100500004828A8086829EFC922F003205480C000B9
:10051000F003205480A9C34828BA086829EFC9E12C
:10052000F003205480BA8AA8A900AA9AA9C348282F
:10053000BA086829EFC963F003205480E000F00393
:1005400020548098AA9AA259A9C348288A086829E1
:10055000EFC961F003205480A2ACA9C348288A08DF
:100560006829EFC9E1F003205480A200A9C34828FC
:100570008A086829EFC963F003205480BA8AA8A2C8
:1005800000A9C348289A086829EFC963F000A29A15
:10059000A9C348289A086829EFC9E1F00098AA9AE7
:1005A000A000A9C3482898086829EFC963F0032070
:1005B0005480A0B5A9C3482898086829EFC9E1F07C
:1005C00003205480A9C34828A0C0845018A93065CE
:1005D0005008AA6829EFC9A0F003205480E0F0F089
:1005E00003205480A9C34828A0EE8C500538A9AD3B
:1005F0006D500508AA6829EFC9A1F003205480E0D6
:100600009CF003205480A9C34828A0EE8C510538E3
:10061000A9116D500508AA6829EFC923F0032054D9
:1006200080E000F003205480A9C34828A04B8C52DE
:100630000538A9646D520508AA6829EFC9E0F003DE
:10064000205480E0B0F003205480A9C34828A08E35
:1006500084E4A9B3A23035B408AA6829EFC9E1F04F
:1006600003205480E082F003205480A9C34828A0CE
:100670007E8CE404A981A2303DB40408AA6829EF65
:10068000C963F003205480E000F003205480A9C324
:100690004828A9B30A08AA6829EFC961F0032054C1
:1006A00080E066F003205480A9C34828A961857BB7
:1006B000A2CE16AD086829EFC9E0F003205480B43B
:1006C000ADC0C2F003205480A9C34828A98085E5A5
:1006D00006E5086829EFC963F003205480A4E5C04B
:1006E00000F003205480A9C34828A90085E5A9018A
:1006F00024E5086829EFC923F003205480A9C348E2
:1007000028A94A8D4004A9012C4004086829EFC992
:1007100063F003205480A9C34828A9918DE504A95A
:10072000E5A0F2D9F303086829EFC961F00320546A
:1007300080A9C34828A2E58EE504A9E5A0F2D9F373
:1007400003086829EFC963F003205480A9C348282F
:10075000A27E8ED705A9E58510A9048511A0F2A96E
:1007600045D110086829EFC9E0F003205480BA860B
:1007700050A2D9A9C348289A086829EFC9E1F00016
:10078000A200A9C348289A086829EFC963F000A607
:10079000509AA000A90BA9C3482898086829EFC956
:1007A00063F00320548098C900F003205480A0B067
:1007B000A900A9C3482898086829EFC9E1F00320D7
:1007C000548098C9B0F003205480A9768572A90599
:1007D0008573A9918D7605A2A3A9C34828A999611B
:1007E000CF08AA6829EFC961F003205480E02BF0FC
:1007F000032054802860AD708F8500AD718F850116
:1008000020C68D18900320548038B003205480A94E
:1008100000F00320548018E9053003205480D003F1
:10082000205480186906100320548038A992E946A4
:10083000700320548038A992E9125003205480A9F3
:1008400000A200F07B4CC088EAEAEAEAEAEAEAEAB7
:10085000EAEAEAEAEAEAEAEAEAEAEAEAEAEAEAEAF8
:10086000EAEAEAEAEAEAEAEAEAEAEAEAEAEAEAEAE8
:10087000EAEAEAEAEAEAEAEAEAEAEAEAEAEAEAEAD8
:10088000EAEAEAEAEAEAEAEAEAEAEAEAEAEAEAEAC8
:10089000EAEAEAEAEAEAEAEAEAEAEAEAEAEAEAEAB8
:1008A000EAEAEAEAEAEAEAEAEAEAEAEAEAEAEAEAA8
:1008B000EAEAEAEAEAEAEAEAEAEAEAEAEAEAEAEA98
:1008C000E8E001F080A900A200F07B4C4689EAEA4A
:1008D000EAEAEAEAEAEAEAEAEAEAEAEAEAEAEAEA78
:1008E000EAEAEAEAEAEAEAEAEAEAEAEAEAEAEAEA68
:1008F000EAEAEAEAEAEAEAEAEAEAEAEAEAEAEAEA58
:10090000EAEAEAEAEAEAEAEAEAEAEAEAEAEAEAEA47
:10091000EAEAEAEAEAEAEAEAEAEAEAEAEAEAEAEA37
:10092000EAEAEAEAEAEAEAEAEAEAEAEAEAEAEAEA27
:10093000EAEAEAEAEAEAEAEAEAEAEAEAEAEAEAEA17
:10094000EAEAEAEAEAEAE8E001F08018A964205855
:1009500089C9C8F00E205480205C896020608960BD
:1009600069646038A9C84C738969324C78894C69CC
:100970008969324C6E896932C9FBF0032054803892
:10098000A9C36C858997898D8992899C896C89898D
:1009900069E669E66C8B896C878969E6C9AAF00308
:1009A000205480A92348A94648A96E4838087808E9
:1009B0001808A9FF08A90008A9FF28F003205480FF
:1009C0002830032054802890032054802828B00326
:1009D0002054805868C96EF00320548068C946F0DE
:1009E0000320548068C923F00320548060AD828FB7
:1009F0008500AD838F850120C68DA939856BA9A19E
:100A00008DCC04A99F85FFA2FD066BA56BC972F072
:100A100003205480CECC04ADCC04C9A0F0032054F4
:100A2000805ECF03ADCC04C950F003205480F602A1
:100A3000A5FFC9A0F0032054801836023602A5FF96
:100A4000C981F0032054803876027602A5FFC9E000
:100A5000F00320548060AD948F8500AD958F8501A3
:100A600020C68DA97885A1A90585A2A9B7A2E1A074
:100A70008A85A98E990A9D800D941F91A1C5A9F020
:100A800003205480EC990AF003205480CD610EF0CD
:100A900003205480C400F003205480CD0206F003EC
:100AA000205480A9F185B0A90585B1A27CA96181F6
:100AB00034ADF105C961F003205480A9AA8520A9AD
:100AC000048521A0EC8CAA04A21BA105C9ECF003AB
:100AD00020548060ADA68F8500ADA78F850120C60C
:100AE0008D18A90D69FAC907F003205480A937852C
:100AF0005EA9C98571A9B6255E2471F003205480D2
:100B0000A93B8D2104A9D78D1B05A9EB8DCC06AE81
:100B10002104E88A4D1B05A8CCCC06F003205480A4
:100B2000A217A0A1A92F8D5903A9909990018A1904
:100B3000900138FD4203A8C068F003205480A2CD84
:100B4000A9F18535A9AC85BCA98D3568A09A592233
:100B500000AAE02DF003205480A9388590A90885CB
:100B600091A9D98D0209A90AA0CA187190C9E3F008
:100B700003205480A93385C0A90485C1A9D08D3331
:100B800004A26BA922386155C9F3F003205480A94F
:100B90003485C1A90485C2A9F58D3404E8A91F21B3
:100BA00055C915F003205480A93585C2A90485C311
:100BB000A0758C3504E8A975C155F003205480A9AF
:100BC0003685C3A90485C4A9888D3604E8A9C14126
:100BD00055C949F003205480A93785C4A90485C5A7
:100BE000A92E8D3704E8A9910155C9BFF0032054FF
:100BF00080A93885C5A90485C6A97F8D3804E8A9D0
:100C00006A18E155C9EAF00320548060ADB88F85B9
:100C100000ADB98F850120C68DA980180AF0032088
:100C20005480B00320548010032054800AF0032025
:100C3000548090032054801003205480A9400AD08F
:100C40000320548090032054803003205480C980B6
:100C5000F003205480A9A50AC94AF0032054800A51
:100C6000C994F003205480A901084828B0032054F7
:100C70008018900320548028A94008482870032039
:100C80005480B8500320548028A203CAD0032054B3
:100C900080E002F0032054801003205480CAD00367
:100CA000205480E001F0032054801003205480CAB7
:100CB000F003205480E000F00320548010032054FF
:100CC00080CAD0032054803003205480E0FFF0031A
:100CD000205480A2803003205480CA100320548006
:100CE000E07FF003205480A05088C04FF0032054D0
:100CF0008088C04EF003205480C8C04FF0032054B9
:100D000080E8E080F003205480A901184AF0032015
:100D10005480B0032054804AF00320548090032074
:100D20005480A95A4AC92DF003205480A9A5386AD5
:100D3000C9D2F0032054806A9003205480C9E9F09E
:100D400003205480182A2AC9A5F003205480B00338
:100D500020548008A9004828900320548038B0030C
:100D60002054807808682904D003205480580868EB
:100D70002904F00320548028A901AA1003205480DC
:100D8000D003205480E001F003205480CA8A10036D
:100D9000205480F003205480A901A8C8C898C0033B
:100DA000F003205480BA8600A2309AA9DD48BAE048
:100DB0002FF003205480A6009AA9EEAD3001C9DDC2
:100DC000F00320548060201E8EAD00038D0620AD00
:100DD00001038D0620A000B1008D0720F004C84C4F
:100DE000D78D98291FC91FF009A9008D0720C84C6D
:100DF000E28DAD01038C01036D01038D0103AAADEA
:100E0000000390061869018D0003C923D00F8AC919
:100E1000C0D00AA9208D0003A9008D010360AD3D5B
:100E20009FD002686860201E8EA9008D00208D046E
:100E3000038D01208D0503A93F8D0620A9008D0695
:100E400020A200A020BD508E8D0720E888D0F6603B
:100E50000F0010200F0414240F0818280F0C1C2C4E
:100E60000F0010200F0616260F0818280F0A1A2A3E
:100E7000AD3D9FF028A9208D0003A9018D0103A994
:100E8000008D0203A9008D0303A9008D0403A900AE
:100E90008D0503A9008D0603A9008D070360A08EB0
:100EA00072656772657373696F6E20746573742001
:100EB00073746172742E2E2E00BB8E746573742051
:100EC0007375636365656465642E2E2E00CF8E7422
:100ED000657374206661696C656421212100E08E70
:100EE0006164647265737320746573742E2E2E00B2
:100EF000F28E73746174757320746573742E2E2E64
:100F000000038F7061676520626F72646572206391
:100F1000726F7373696E6720746573742E2E2E0062
:100F2000228F646D6120746573742E2E2E00308FB5
:100F300073707269746520746573742E2E2E00416F
:100F40008F73696D706C652073707269746520743D
:100F50006573742028646D61292E2E2E005F8F70BA
:100F6000707520696E737420746573742E2E2E0054
:100F7000728F613520696E737420746573742E2EC0
:100F80002E00848F613420696E73742074657374CD
:100F90002E2E2E00968F613320696E737420746537
:100FA00073742E2E2E00A88F613220696E73742008
:100FB000746573742E2E2E00BA8F73696E676C651C
:100FC000206279746520696E737420746573742E61
:100FD0002E2E0000000000000000000000000000B5
:100FE0000000000000000000000000000000000001
:100FF00000000000000000000000000000000000F1
:1010000000000000000000000000000000000000E0
:1010100000000000000000000000000000000000D0
:101400004C059F2A2A2A2A2A2A2A2A2A2A2A2A2ACA
:10141000302A2A2A2A2A2A2A2A2A2A2A2A2A2A2A26
:101420002A2A2A2A2A2A2A2A2A2A2A2A2A2A2A2A1C
:101430002A2A2A2A2A2A2A2A2A2A2A2A2A2A2A2A0C
:101440002A2A2A2A2A2A2A2A2A2A2A2A2A2A2A2AFC
:101450002A2A2A2A2A2A2A2A2A2A2A2A2A2A2A2AEC
:101460002A2A2A2A2A2A2A2A2A2A2A2A2A2A2A2ADC
:101470002A2A2A2A2A2A2A2A2A2A2A2A2A2A2A2ACC
:101480002A2A2A2A2A2A2A2A2A2A2A2A2A2A2A2ABC
:101490002A2A2A2A2A2A2A2A2A2A2A2A2A2A2A2AAC
:1014A0002A2A2A2A2A2A2A2A2A2A2A2A2A2A2A2A9C
:1014B0002A2A2A2A2A2A2A2A2A2A2A2A2A2A2A2A8C
:1014C0002A2A2A2A2A2A2A2A2A2A2A2A2A2A2A2A7C
:1014D0002A2A2A2A2A2A2A2A2A2A2A2A2A2A2A2A6C
:1014E0002A2A2A2A2A2A2A2A2A2A2A2A2A2A2A2A5C
:1014F0002A2A2A2A2A2A2A2A2A2A2A2A2A2AEA4C6A
:10150000089F2A2A2A2A2A2A2A2A2A2A2A2A2A2AE8
:10151000312A2A2A2A2A2A2A2A2A2A2A2A2A2A2A24
:101520002A2A2A2A2A2A2A2A2A2A2A2A2A2A2A2A1B
:101530002A2A2A2A2A2A2A2A2A2A2A2A2A2A2A2A0B
:101540002A2A2A2A2A2A2A2A2A2A2A2A2A2A2A2AFB
:101550002A2A2A2A2A2A2A2A2A2A2A2A2A2A2A2AEB
:101560002A2A2A2A2A2A2A2A2A2A2A2A2A2A2A2ADB
:101570002A2A2A2A2A2A2A2A2A2A2A2A2A2A2A2ACB
:101580002A2A2A2A2A2A2A2A2A2A2A2A2A2A2A2ABB
:101590002A2A2A2A2A2A2A2A2A2A2A2A2A2A2A2AAB
:1015A0002A2A2A2A2A2A2A2A2A2A2A2A2A2A2A2A9B
:1015B0002A2A2A2A2A2A2A2A2A2A2A2A2A2A2A2A8B
:1015C0002A2A2A2A2A2A2A2A2A2A2A2A2A2A2A2A7B
:1015D0002A2A2A2A2A2A2A2A2A2A2A2A2A2A2A2A6B
:1015E0002A2A2A2A2A2A2A2A2A2A2A2A2A2A2A2A5B
:1015F0002A2A2A2A2A2A2A2A2A2A2A2A2AEA4C0B88
:101600009F2A2A2A2A2A2A2A2A2A2A2A2A2A2A2AC5
:10161000322A2A2A2A2A2A2A2A2A2A2A2A2A2A2A22
:101620002A2A2A2A2A2A2A2A2A2A2A2A2A2A2A2A1A
:101630002A2A2A2A2A2A2A2A2A2A2A2A2A2A2A2A0A
:101640002A2A2A2A2A2A2A2A2A2A2A2A2A2A2A2AFA
:101650002A2A2A2A2A2A2A2A2A2A2A2A2A2A2A2AEA
:101660002A2A2A2A2A2A2A2A2A2A2A2A2A2A2A2ADA
:101670002A2A2A2A2A2A2A2A2A2A2A2A2A2A2A2ACA
:101680002A2A2A2A2A2A2A2A2A2A2A2A2A2A2A2ABA
:101690002A2A2A2A2A2A2A2A2A2A2A2A2A2A2A2AAA
:1016A0002A2A2A2A2A2A2A2A2A2A2A2A2A2A2A2A9A
:1016B0002A2A2A2A2A2A2A2A2A2A2A2A2A2A2A2A8A
:1016C0002A2A2A2A2A2A2A2A2A2A2A2A2A2A2A2A7A
:1016D0002A2A2A2A2A2A2A2A2A2A2A2A2A2A2A2A6A
:1016E0002A2A2A2A2A2A2A2A2A2A2A2A2A2A2A2A5A
:1016F0002A2A2A2A2A2A2A2A2A2A2A2AEA4C0E9F0F
:10170000332A2A2A2A2A2A2A2A2A2A2A2A2A2A2A30
:101710002A2A2A2A2A2A2A2A2A2A2A2A2A2A2A2A29
:101720002A2A2A2A2A2A2A2A2A2A2A2A2A2A2A2A19
:101730002A2A2A2A2A2A2A2A2A2A2A2A2A2A2A2A09
:101740002A2A2A2A2A2A2A2A2A2A2A2A2A2A2A2AF9
:101750002A2A2A2A2A2A2A2A2A2A2A2A2A2A2A2AE9
:101760002A2A2A2A2A2A2A2A2A2A2A2A2A2A2A2AD9
:101770002A2A2A2A2A2A2A2A2A2A2A2A2A2A2A2AC9
:101780002A2A2A2A2A2A2A2A2A2A2A2A2A2A2A2AB9
:101790002A2A2A2A2A2A2A2A2A2A2A2A2A2A2A2AA9
:1017A0002A2A2A2A2A2A2A2A2A2A2A2A2A2A2A2A99
:1017B0002A2A2A2A2A2A2A2A2A2A2A2A2A2A2A2A89
:1017C0002A2A2A2A2A2A2A2A2A2A2A2A2A2A2A2A79
:1017D0002A2A2A2A2A2A2A2A2A2A2A2A2A2A2A2A69
:1017E0002A2A2A2A2A2A2A2A2A2A2A2A2A2A2A2A59
:1017F0002A2A2A2A2A2A2A2A2A2A2A2AA25FEAE81E
:10180000E060F0032054804C119F2A2A2A2A2A2AB9
:10181000342A2A2A2A2A2A2A2A2A2A2A2A2A2A2A1E
:101820002A2A2A2A2A2A2A2A2A2A2A2A2A2A2A2A18
:101830002A2A2A2A2A2A2A2A2A2A2A2A2A2A2A2A08
:101840002A2A2A2A2A2A2A2A2A2A2A2A2A2A2A2AF8
:101850002A2A2A2A2A2A2A2A2A2A2A2A2A2A2A2AE8
:101860002A2A2A2A2A2A2A2A2A2A2A2A2A2A2A2AD8
:101870002A2A2A2A2A2A2A2A2A2A2A2A2A2A2A2AC8
:101880002A2A2A2A2A2A2A2A2A2A2A2A2A2A2A2AB8
:101890002A2A2A2A2A2A2A2A2A2A2A2A2A2A2A2AA8
:1018A0002A2A2A2A2A2A2A2A2A2A2A2A2A2A2A2A98
:1018B0002A2A2A2A2A2A2A2A2A2A2A2A2A2A2A2A88
:1018C0002A2A2A2A2A2A2A2A2A2A2A2A2A2A2A2A78
:1018D0002A2A2A2A2A2A2A2A2A2A2A2A2A2A2A2A68
:1018E0002A2A2A2A2A2A2A2A2A2A2A2A2A2A2A2A58
:1018F0002A2A2A2A2A2A2A2A2A2A2A2A2A2A2AEA88
:10190000E8E061F0032054804C149F2A2A2A2A2AF6
:10191000352A2A2A2A2A2A2A2A2A2A2A2A2A2A2A1C
:101920002A2A2A2A2A2A2A2A2A2A2A2A2A2A2A2A17
:101930002A2A2A2A2A2A2A2A2A2A2A2A2A2A2A2A07
:101940002A2A2A2A2A2A2A2A2A2A2A2A2A2A2A2AF7
:101950002A2A2A2A2A2A2A2A2A2A2A2A2A2A2A2AE7
:101960002A2A2A2A2A2A2A2A2A2A2A2A2A2A2A2AD7
:101970002A2A2A2A2A2A2A2A2A2A2A2A2A2A2A2AC7
:101980002A2A2A2A2A2A2A2A2A2A2A2A2A2A2A2AB7
:101990002A2A2A2A2A2A2A2A2A2A2A2A2A2A2A2AA7
:1019A0002A2A2A2A2A2A2A2A2A2A2A2A2A2A2A2A97
:1019B0002A2A2A2A2A2A2A2A2A2A2A2A2A2A2A2A87
:1019C0002A2A2A2A2A2A2A2A2A2A2A2A2A2A2A2A77
:1019D0002A2A2A2A2A2A2A2A2A2A2A2A2A2A2A2A67
:1019E0002A2A2A2A2A2A2A2A2A2A2A2A2A2A2A2A57
:1019F0002A2A2A2A2A2A2A2A2A2A2A2A38A93BEAE9
:101A0000699BC9D7F0032054804C179F2A2A2A2AA1
:101A1000362A2A2A2A2A2A2A2A2A2A2A2A2A2A2A1A
:101A20002A2A2A2A2A2A2A2A2A2A2A2A2A2A2A2A16
:101A30002A2A2A2A2A2A2A2A2A2A2A2A2A2A2A2A06
:101A40002A2A2A2A2A2A2A2A2A2A2A2A2A2A2A2AF6
:101A50002A2A2A2A2A2A2A2A2A2A2A2A2A2A2A2AE6
:101A60002A2A2A2A2A2A2A2A2A2A2A2A2A2A2A2AD6
:101A70002A2A2A2A2A2A2A2A2A2A2A2A2A2A2A2AC6
:101A80002A2A2A2A2A2A2A2A2A2A2A2A2A2A2A2AB6
:101A90002A2A2A2A2A2A2A2A2A2A2A2A2A2A2A2AA6
:101AA0002A2A2A2A2A2A2A2A2A2A2A2A2A2A2A2A96
:101AB0002A2A2A2A2A2A2A2A2A2A2A2A2A2A2A2A86
:101AC0002A2A2A2A2A2A2A2A2A2A2A2A2A2A2A2A76
:101AD0002A2A2A2A2A2A2A2A2A2A2A2A2A2A2A2A66
:101AE0002A2A2A2A2A2A2A2A2A2A2A2A2A2A2A2A56
:101AF0002A2A2A2A2A2A2A2A2A2A2A38A977EA09CD
:101B0000F0C9F7F0032054804C1A9F2A2A2A2A2A67
:101B1000372A2A2A2A2A2A2A2A2A2A2A2A2A2A2A18
:101B20002A2A2A2A2A2A2A2A2A2A2A2A2A2A2A2A15
:101B30002A2A2A2A2A2A2A2A2A2A2A2A2A2A2A2A05
:101B40002A2A2A2A2A2A2A2A2A2A2A2A2A2A2A2AF5
:101B50002A2A2A2A2A2A2A2A2A2A2A2A2A2A2A2AE5
:101B60002A2A2A2A2A2A2A2A2A2A2A2A2A2A2A2AD5
:101B70002A2A2A2A2A2A2A2A2A2A2A2A2A2A2A2AC5
:101B80002A2A2A2A2A2A2A2A2A2A2A2A2A2A2A2AB5
:101B90002A2A2A2A2A2A2A2A2A2A2A2A2A2A2A2AA5
:101BA0002A2A2A2A2A2A2A2A2A2A2A2A2A2A2A2A95
:101BB0002A2A2A2A2A2A2A2A2A2A2A2A2A2A2A2A85
:101BC0002A2A2A2A2A2A2A2A2A2A2A2A2A2A2A2A75
:101BD0002A2A2A2A2A2A2A2A2A2A2A2A2A2A2A2A65
:101BE0002A2A2A2A2A2A2A2A2A2A2A2A2A2A2A2A55
:101BF0002A2A2A2A38A9C18D2006A991EAED2006B1
:101C0000C9D0F0032054804C1D9F2A2A2A2A2A2A50
:101C1000382A2A2A2A2A2A2A2A2A2A2A2A2A2A2A16
:101C20002A2A2A2A2A2A2A2A2A2A2A2A2A2A2A2A14
:101C30002A2A2A2A2A2A2A2A2A2A2A2A2A2A2A2A04
:101C40002A2A2A2A2A2A2A2A2A2A2A2A2A2A2A2AF4
:101C50002A2A2A2A2A2A2A2A2A2A2A2A2A2A2A2AE4
:101C60002A2A2A2A2A2A2A2A2A2A2A2A2A2A2A2AD4
:101C70002A2A2A2A2A2A2A2A2A2A2A2A2A2A2A2AC4
:101C80002A2A2A2A2A2A2A2A2A2A2A2A2A2A2A2AB4
:101C90002A2A2A2A2A2A2A2A2A2A2A2A2A2A2A2AA4
:101CA0002A2A2A2A2A2A2A2A2A2A2A2A2A2A2A2A94
:101CB0002A2A2A2A2A2A2A2A2A2A2A2A2A2A2A2A84
:101CC0002A2A2A2A2A2A2A2A2A2A2A2A2A2A2A2A74
:101CD0002A2A2A2A2A2A2A2A2A2A2A2A2A2A2A2A64
:101CE0002A2A2A2A2A2A2A2A2A2A2A2A2A2A2A2A54
:101CF0002A2A2A2A2A2A2A2A2A2A209FEA6CFA9C95
:101D00004C239F2A2A2A2A2A2A2A2A2A2A2A2A2AA3
:101D1000392A2A2A2A2A2A2A2A2A2A2A2A2A2A2A14
:101D20002A2A2A2A2A2A2A2A2A2A2A2A2A2A2A2A13
:101D30002A2A2A2A2A2A2A2A2A2A2A2A2A2A2A2A03
:101D40002A2A2A2A2A2A2A2A2A2A2A2A2A2A2A2AF3
:101D50002A2A2A2A2A2A2A2A2A2A2A2A2A2A2A2AE3
:101D60002A2A2A2A2A2A2A2A2A2A2A2A2A2A2A2AD3
:101D70002A2A2A2A2A2A2A2A2A2A2A2A2A2A2A2AC3
:101D80002A2A2A2A2A2A2A2A2A2A2A2A2A2A2A2AB3
:101D90002A2A2A2A2A2A2A2A2A2A2A2A2A2A2A2AA3
:101DA0002A2A2A2A2A2A2A2A2A2A2A2A2A2A2A2A93
:101DB0002A2A2A2A2A2A2A2A2A2A2A2A2A2A2A2A83
:101DC0002A2A2A2A2A2A2A2A2A2A2A2A2A2A2A2A73
:101DD0002A2A2A2A2A2A2A2A2A2A2A2A2A2A2A2A63
:101DE0002A2A2A2A2A2A2A2A2A2A2A2A2A2A2A2A53
:101DF0002A2A2A2A2A2A2A2A2A2A2A269FEA6CFBFF
:101E00009D4C299F2A2A2A2A2A2A2A2A2A2A2A2A29
:101E100031302A2A2A2A2A2A2A2A2A2A2A2A2A2A15
:101E20002A2A2A2A2A2A2A2A2A2A2A2A2A2A2A2A12
:101E30002A2A2A2A2A2A2A2A2A2A2A2A2A2A2A2A02
:101E40002A2A2A2A2A2A2A2A2A2A2A2A2A2A2A2AF2
:101E50002A2A2A2A2A2A2A2A2A2A2A2A2A2A2A2AE2
:101E60002A2A2A2A2A2A2A2A2A2A2A2A2A2A2A2AD2
:101E70002A2A2A2A2A2A2A2A2A2A2A2A2A2A2A2AC2
:101E80002A2A2A2A2A2A2A2A2A2A2A2A2A2A2A2AB2
:101E90002A2A2A2A2A2A2A2A2A2A2A2A2A2A2A2AA2
:101EA0002A2A2A2A2A2A2A2A2A2A2A2A2A2A2A2A92
:101EB0002A2A2A2A2A2A2A2A2A2A2A2A2A2A2A2A82
:101EC0002A2A2A2A2A2A2A2A2A2A2A2A2A2A2A2A72
:101ED0002A2A2A2A2A2A2A2A2A2A2A2A2A2A2A2A62
:101EE0002A2A2A2A2A2A2A2A2A2A2A2A2A2A2A2A52
:101EF0002A2A2A2A2A2A2A2A2A2A2A2A2C9FEA6CC9
:101F0000FC9E4C2F9F4CFE944CFD954CFC964CFC3B
:101F1000974CFF984CFC994CFB9A4CF49B4CFC9CC6
:101F20004C009D4CFD9D4C019E4CFE9E4C029FAD75
:101F3000DE8E8500ADDF8E850120C68D600101003B
:101F40000000000000000000000000000000000091
:101F50000000000000000000000000000000000081
:101F60000000000000000000000000000000000071
:101F70000000000000000000000000000000000061
:101F80000000000000000000000000000000000051
:101F90000000000000000000000000000000000041
:101FA0000000000000000000000000000000000031
:101FB0000000000000000000000000000000000021
:101FC0000000000000000000000000000000000011
:101FD0000000000000000000000000000000000001
:101FE00000000000000000000000000000000000F1
:101FF000000000000000000000007C830080000062
:1020000000000000000000000000000000000000D0
:1020100000000000000000000000000000000000C0
:1020200000000000000000000000000000000000B0
:1020300000000000000000000000000000000000A0
:107FF000000000000000000000007C830080000002
:00000001FF
